:020000040800F2
:10000000003F0024A93B000833080108953B000885
:10001000953B0008953B0008953B00080000000058
:10002000000000000000000000000000953C0008F7
:10003000953B000800000000313C000821BC00088E
:10004000593E0008593E0008593E0008593E000834
:10005000593E0008593E0008593E0008593E000824
:10006000593E0008593E0008593E0008593E000814
:10007000593E0008593E0008593E0008593E000804
:0402CC00FFFFFFFF32
:1002D00001F0FF01102A2BDB10F0070F08D010F8F7
:1002E000013B013A8B422DD010F0070F42B3F6D1FB
:1002F000F0B441EA012141EA014122F007047FF014
:1003000000070023F0E80256083C85EA010586EA6A
:10031000010685FA47F5A3FA87F586FA47F6A5FAA6
:1003200087F68EB9EED1F0BC01F0FF0102F00702B2
:1003300032B110F8013B013A83EA010313B1F8D15D
:100340000020704701387047002D06BF354603383E
:10035000073815F0010F07D1013015F4807F02BF77
:10036000013015F4C03F0130F0BC0138704700BFC8
:1003700080F0004002E000BF81F0004142001FBF5A
:100380005FEA410392EA030F7FEA226C7FEA236C63
:100390006AD04FEA1262D2EB1363C1BFD218414058
:1003A00048404140B8BF5B42192B88BF704710F0EE
:1003B000004F40F4000020F07F4018BF404211F091
:1003C000004F41F4000121F07F4118BF494292EAF9
:1003D000030F3FD0A2F1010241FA03FC10EB0C0025
:1003E000C3F1200301FA03F100F0004302D54942B2
:1003F00060EB4000B0F5000F13D3B0F1807F06D35F
:1004000040084FEA310102F10102FE2A51D2B1F156
:10041000004F40EBC25008BF20F0010040EA03004B
:100420007047490040EB0000013A28BFB0F5000FCB
:10043000EDD2B0FA80FCACF1080CB2EB0C0200FA81
:100440000CF0AABF00EBC25052421843BCBFD040D0
:100450001843704792F0000F81F4000106BF80F44A
:1004600000000132013BB5E74FEA41037FEA226C0D
:1004700018BF7FEA236C21D092EA030F04D092F0D8
:10048000000F08BF0846704790EA010F1CBF00200C
:10049000704712F07F4F04D1400028BF40F0004069
:1004A000704712F100723CBF00F50000704700F089
:1004B000004343F0FE4040F4000070477FEA2262B0
:1004C00016BF08467FEA23630146420206BF5FEA81
:1004D000412390EA010F40F4800070474FF0000381
:1004E00004E000BF10F0004348BF40425FEA000C48
:1004F00008BF704743F0964301464FF000001CE0F0
:1005000050EA010208BF70474FF000030AE000BF45
:1005100050EA010208BF704711F0004302D5404283
:1005200061EB41015FEA010C02BF844601460020F5
:1005300043F0B64308BFA3F18053A3F50003BCFA10
:100540008CF2083AA3EBC25310DB01FA02FC6344BD
:1005500000FA02FCC2F12002BCF1004F20FA02F2C4
:1005600043EB020008BF20F00100704702F12002B7
:1005700001FA02FCC2F1200250EA4C0021FA02F218
:1005800043EB020008BF20EADC7070474FF0FF0C1D
:100590001CEAD0521EBF1CEAD15392EA0C0F93EA18
:1005A0000C0F6FD01A4480EA010C400218BF5FEABA
:1005B00041211ED04FF0006343EA501043EA51112D
:1005C000A0FB01310CF00040B1F5000F3EBF490027
:1005D00041EAD3715B0040EA010062F17F02FD2A2B
:1005E0001DD8B3F1004F40EBC25008BF20F001000E
:1005F000704790F0000F0CF0004C08BF49024CEA25
:10060000502040EA51207F3AC2BFD2F1FF0340EAB6
:10061000C250704740F400004FF00003013A5DDC27
:1006200012F1190FDCBF00F000407047C2F1000268
:10063000410021FA02F1C2F1200200FA02FC5FEA55
:10064000310040F1000053EA4C0308BF20EADC709F
:10065000704792F0000F00F0004C02BF400010F411
:10066000000F013AF9D040EA0C0093F0000F01F0BE
:10067000004C02BF490011F4000F013BF9D041EAE0
:100680000C018FE70CEAD15392EA0C0F18BF93EAE2
:100690000C0F0AD030F0004C18BF31F0004CD8D10C
:1006A00080EA010000F00040704790F0000F17BF93
:1006B00090F0004F084691F0000F91F0004F14D0D9
:1006C00092EA0C0F01D142020FD193EA0C0F03D131
:1006D0004B0218BF084608D180EA010000F0004034
:1006E00040F0FE4040F40000704740F0FE4040F40F
:1006F000400070474FF0FF0C1CEAD0521EBF1CEAAE
:10070000D15392EA0C0F93EA0C0F69D0A2EB0302CB
:1007100080EA010C49024FEA402037D04FF0805365
:1007200043EA111143EA10130CF000408B4238BF2A
:100730005B0042F17D024FF4000C8B4224BF5B1A38
:1007400040EA0C00B3EB510F24BFA3EB510340EA86
:100750005C00B3EB910F24BFA3EB910340EA9C0034
:10076000B3EBD10F24BFA3EBD10340EADC001B01A4
:1007700018BF5FEA1C1CE0D1FD2A3FF650AF8B4248
:1007800040EBC25008BF20F0010070470CF0004C55
:100790004CEA50207F32C2BFD2F1FF0340EAC25080
:1007A000704740F400004FF00003013A37E792F041
:1007B000000F00F0004C02BF400010F4000F013A9F
:1007C000F9D040EA0C0093F0000F01F0004C02BF9A
:1007D000490011F4000F013BF9D041EA0C0195E703
:1007E0000CEAD15392EA0C0F08D142027FF47DAF9C
:1007F00093EA0C0F7FF470AF084676E793EA0C0F8C
:1008000004D14B023FF44CAF08466EE730F0004C89
:1008100018BF31F0004CCAD130F000427FF45CAF19
:1008200031F000437FF43CAF5FE700BF42000ED2DF
:10083000B2F1FE4F0BD34FF09E03B3EB126209D41B
:100840004FEA002343F0004323FA02F070474FF0D1
:100850000000704712F1610F01D1420202D14FF046
:10086000FF3070474FF00000704700BF7BB972B98E
:100870000029BEBF00204FF0004106E008BF00285D
:100880001CBF6FF000414FF0FF3000F057B8ADF1E2
:10089000080C6DE904CE002909DB002B1ADB00F0FF
:1008A0004FF8DDF804E0DDE9022304B07047404270
:1008B00061EB4101002B1BDB00F042F8DDF804E0A6
:1008C000DDE9022304B0404261EB4101524263EB97
:1008D00043037047524263EB430300F031F8DDF805
:1008E00004E0DDE9022304B0404261EB41017047BE
:1008F000524263EB430300F023F8DDF804E0DDE946
:10090000022304B0524263EB4303704753B94AB920
:10091000002908BF00281CBF4FF0FF314FF0FF3007
:1009200000F00CB8ADF1080C6DE904CE00F008F849
:10093000DDF804E0DDE9022304B07047704700BF32
:100940002DE9F04786468C460846089E15467446B3
:100950001946002B40F0C2808542B2FA82F245D996
:100960004AB1C2F1200300FA02FC2EFA03F39540CB
:1009700043EA0C0C94404FEA154EA8B2BCFBFEF8BB
:10098000230C0EFB18CC08FB00F943EA0C439945F5
:1009900028D9EB1808F1FF3704D2994502D9A8F1FC
:1009A00002072B44A3EB0903A4B2B3FBFEFC0EFB2E
:1009B0001C330CFB00F044EA0344A04214D92C1968
:1009C0000CF1FF3304D2A04202D9ACF102032C4453
:1009D000241A43EA07401EB1D440002334607360F8
:1009E000BDE8F0874746DDE76346F1E792BB431B6E
:1009F00001214FEA154EAFB2B3FBFEFC200C0EFBFB
:100A00001C330CFB07F840EA0343984562D9EB1806
:100A10000CF1FF3004D2984502D9ACF102002B440E
:100A2000A3EB0803A4B2B3FBFEFC0EFB1C330CFBD0
:100A300007F744EA0344A7424ED92C190CF1FF33BF
:100A400004D2A74202D9ACF102032C44E41B43EACE
:100A50000040C0E7C2F1200320FA03F19540904026
:100A60002EFA03F303434FEA154EAFB2B1FBFEFC7F
:100A70000EFB1C10190C0CFB07F841EA00418845DD
:100A800004FA02F422D969180CF1FF3004D2884527
:100A900002D9ACF102002944A1EB08019BB2B1FBE1
:100AA000FEFC0EFB1C110CFB07F743EA01439F42BF
:100AB0000ED9EB180CF1FF3104D29F4202D9ACF1F0
:100AC00002012B44DB1B41EA004192E76046E3E769
:100AD0006146F7E76046A3E76346B7E7834206D976
:100AE00016B9002108467BE7C6E900E0F9E7B3FA4A
:100AF00083F78FB9834201D3724508D8BEEB020455
:100B000060EB030301209C461EB9002168E73846CC
:100B1000FAE7C6E9004CF8E7C7F1200CBB4022FA1F
:100B20000CF41C432EFA0CF120FA0CF3B8400143EC
:100B30004FEA14490EFA07F5B3FBF9F81FFA84FEE1
:100B400009FB18300B0C08FB0EFA43EA00439A45E8
:100B500002FA07F240D9E31808F1FF3004D29A45AF
:100B600002D9A8F102002344A3EB0A0389B2B3FB24
:100B7000F9F809FB183308FB0EFE41EA03418E45E4
:100B80002CD9611808F1FF3304D28E4502D9A8F19F
:100B90000203214443EA0040A0FB0298A1EB0E01AE
:100BA0004145CE46434602D306D14D4504D2B9EB6A
:100BB000020E68EB04030138002EA6D0B5EB0E023E
:100BC00061EB030101FA0CFC22FA07F34CEA030380
:100BD000F940C6E9003198E74046C5E74346D9E702
:100BE000034613F8012B002AFBD1181A013870476D
:100BF0002DE9F04786B000F0D7F84948484F13F088
:100C0000B1FC48B9474A012147480FF040FC4FF07A
:100C1000FF3006B0BDE8F087384613F0A3FC00288B
:100C2000F0D042480EF0A7FD41480EF0A4FD00F0C0
:100C3000A3F8044608B93F4AE5E704F01DF93E4B26
:100C4000054603A804933D4B059304F053FF284643
:100C500011F03DFB00214CF250300DF037FF384EC3
:100C600000F03EF9374806F0FDFF014636480EF029
:100C70003FFEDFF8D8903348DFF8AC8006F054FF31
:100C8000014633480EF034FE3368013333600321EC
:100C90004A4640460FF004FCA3683A212046DB6830
:100CA00098478246A36801AA0D2120461B699847F0
:100CB0000546284928480EF01BFE5AEA050525D1AD
:100CC0002648DDE901120EF013FE0199174A184B70
:100CD000002918BF134601211B799940BB681048B1
:100CE0005B69984742F2107000210DF0EFFE1C4B3B
:100CF0001B78002BC8D01B491B4A12480EF051FD2F
:100D0000014648B119480EF0F3FDBDE7184A01212C
:100D100040460FF0BCFBD8E716480EF0E9FDB3E7FC
:100D2000705401089E6101087C5A0108AC5B0108FF
:100D3000A45B0108B4610108150E0008010004E07D
:100D4000781400247C140024D16101080262010897
:100D5000DC610108D41D0024106201082B62010827
:100D6000E61D002472620108656201087D620108C7
:100D7000446201089C62010838B5084C204613F013
:100D8000F1FB2168054620B905480EF0B1FD284663
:100D900038BD04480EF0ACFD2046F9E710550108B7
:100DA000C16201081563010890B587B0144C06AF05
:100DB00004F062F8036820461A69517913780491A7
:100DC00011790391D1780291917801911221527891
:100DD00000920C4A0EF0EAF988B006AA0A4BC2E962
:100DE00005344FF400739383084B42F8103F0023FF
:100DF0004FF4E651064801F099F80437BD4690BD1E
:100E0000D41D00243D6301085B6301080300000159
:100E1000645B0108F0B51B4B87B0994200AF7A6064
:100E200024D19068391D043004F0F0F808B307F1BC
:100E30000804011D1023012022466E4604F004FC24
:100E400088B06A464FF400730F4D93830F4BC2E98D
:100E5000055442F8103F4FF4E6510D48002301F0CD
:100E600065F821462846B5460EF042FD1C37BD46C2
:100E7000F0BD084A012106480FF009FB05480EF0B5
:100E800037FDF3E7010004E072630108030000018D
:100E9000645B01088A63010808B50B7813B1012B64
:100EA0000ED008BDC96931B909480EF021FD094BC2
:100EB00001221A70F5E70848BDE808400EF018BD99
:100EC000C96906480EF014FD024B0022F1E700BF8D
:100ED000B5630108E61D0024C6630108DF6301084D
:100EE00038B50120104D45F6073328806B800F4C34
:100EF0002A1D0F490FF08AFC204611F04EFE0D4BC3
:100F00000D4A236704F15403E56592E803000B4A98
:100F100083E80300042384F88630094B6367802349
:100F2000A367C4E91F2338BDCC1D00247C14002412
:100F3000F6630108990E000800080024E71D00244C
:100F4000671E00242DE9F043079D15B915600020A8
:100F500012E00324B5FBF4F404EB4407BD4218BFD0
:100F60000134B4F1804F09D2A40001348C4200D87E
:100F700038B96FF00B001460BDE8F0834FF0FF3418
:100F8000F7E704460021DFF8B4E0B94203F1030CAF
:100F900004F104062BD3A942274623D21F7801F17E
:100FA000010C2649AC454FEAA70E4FEA071734BF9C
:100FB0005B78002311F80EE0AC4507F0300784F8A9
:100FC00000E001EB131E34BF9B003D231EF80770A9
:100FD00038BF03F03C036770374638BFCB5CA37063
:100FE0003D23E370381A002310603B70AFE71CF814
:100FF000034C03311CF8023C4FEAA4091CF8018C95
:1010000024011EF8099004F0300406F8049C0EEB4D
:1010100013199B0019F8044003F03C0306F8034C35
:101020000EEB981408F03F08E35C344606F8023CE7
:101030001EF8083006F8013C6346A6E72164010863
:101040002DE9F04F91B0840705460E46009302F05B
:101050000403DDF868900293C2F3C203039203F124
:101060000103059340F0BA81041D30B1072909D866
:101070006FF01B0011B0BDE8F08F01F00706341DC2
:10108000C6F10806009B4FF000084FF0040A591EF5
:101090004FF0FF334746C34601935346CDF81080C7
:1010A0000DB1009A22600598002800F3E880984866
:1010B000009A824203D397488242C0F0E080039AAC
:1010C000A4EB050E92074FEA9E0000F103810F2F5B
:1010D00000F2B180002D00F0058107F140020DEB18
:1010E000020C019A0CF8200C0CF8102C049801301A
:1010F0000490E7E07A285DD84B280ED8472859D8C5
:1011000029282DD8252852D054D820287AD0233801
:10111000D0F1000B4BEB000B74E04C382E2849D873
:10112000DFE800F070484848484848484848484880
:101130004B484848484848484859484B4B595959E2
:10114000704B6D487048184B184848827F4B484890
:101150004B487F0000204FF0000B4FF0040A38E0AE
:101160002A380122C0B202FA00F010EA0E0F49D16B
:1011700010F0625C2FD110EA020B43D06046013CB4
:101180005444B4FBFAF40AFB04F4002D61D0A3EB41
:10119000050CA4446645FFF46BAF002868D1042B0E
:1011A00047D159F8043B2360043404232AE0019A10
:1011B000013A01924FF0000B24E011F8010C6C2869
:1011C00034D111F8023C00206C2B8346C5D14FF07E
:1011D000080A5346D3E709F10709073429F007093C
:1011E00024F00704F9E802AB35B106982044B04278
:1011F0003FF63EAFC4E900AB08344FF0000B4FF0B0
:10120000080A534611F8010F002878D0BBF1000FEF
:101210007FF470AF2528F5D1019B4FF0010B01330E
:1012200001934FF0040AECE7584694E70020834608
:10123000A5E7082B02D06FF015001BE709F107099D
:1012400029F00709F9E80223C4E900230834082338
:10125000D8E768B9042B02D109F10409A4E7082BE7
:10126000E9D109F1070929F0070909F10809EDE7B2
:10127000059A013A059259F8042B009210E7039A57
:10128000900720D5A4EB050E4FF0010C4FEA9E000D
:10129000BEF5007FCFD20F2FCDD8F5B107F14002B8
:1012A000C0B20DEB020E019A0EF8200C0EF8102CB5
:1012B000BCF1000F3FF41AAF60F07F0008F10108A5
:1012C0000EF8200C0137C5F1080204344FF6DA7E1F
:1012D000069297E74FF0000CDAE7BCF1000F01D05F
:1012E0000136EFE7029802360028EBD10098CDE9ED
:1012F0000631FFF775FC0644DDE90631E2E7631BC2
:10130000B3F5806F97D23DB9A6F10804E018B1E6B5
:1013100080520108948501089B08029A28602B706E
:101320009DF81030C2B1EB7085F80280B8F1000F63
:1013300005D008A80022C5F1010C97420ED1C5F1D5
:1013400001030DF120094FF0000A0DF1300B01935C
:10135000574512D1601B8DE66B70E5E710F8013B35
:10136000190608D504EB0C0E03F07F037645FFF455
:101370007FAE04F8013B0132DFE7B8F1000F03D084
:1013800099F90020002A17DB029BD3B11AF80B2031
:1013900004F8012B0022019B981820448642FFF498
:1013A00067AE99F80000009904F8010B20460392FB
:1013B00013F0A6FE039A14440AF1010A09F1010987
:1013C000C6E799F8002055F822300093029B009858
:1013D00045F82230FFF704FC421CDCE76FF00D00FB
:1013E00048E600BF2DE9F04F97B0044690F802B0F0
:1013F0008946DDF880A00593CAF3C00302920793E3
:1014000041B9457800780BEB800020444D4516D853
:10141000A0EB0409E3780693BBF1000F02D01AF0A9
:10142000010F15D1069B43BB029B1BB1059A494690
:10143000204698474D46284617B0BDE8F08F461C19
:1014400009F101093046FFF7CBFB01303044DDE7FD
:10145000217862688B00039104EB81080492089361
:10146000029B002B40F0E5804D46474608EB0B09F8
:1014700000264F4541D1D84413E01AF0020FD3D0D3
:101480002378984603939B0004EB880808936368CD
:101490000493029B002B67D14D46BBF1000F3ED158
:1014A0005E461AF0050F069B08BF4FF0020B08EBD3
:1014B000430918BF4FF0010B0AF002030293C8451D
:1014C000B9D018F8021B18F8013C54F82370964B59
:1014D0009F4202D3954B9F4227D3079B002B31D0CD
:1014E00004980EF0DEF968B3914A023D00910221A2
:1014F000049B90480EF0DEFFE1E717F8012B54F84B
:101500002200FFF76DFB219B013033B1229B9E42ED
:101510003EBF219B23F8160001360544A9E71AF0C7
:1015200004061CBFD844029EBBE7079B23B1049866
:101530000EF0B7F90028D7D11AF0010F05D1A5EBAD
:101540000B05BCE7029B002BB9D03846FFF748FBE0
:10155000219B3BB1229B9E423FBF431C219A22F814
:10156000163001360544AAE7BBF1000F65D01AF02A
:10157000040665D05F46002612A85A46414613F07D
:10158000BFFD069BD8445B000A93069B08EB430310
:1015900009930AF002030B93099B434552D11AF0B9
:1015A000020F637808BF790806EB030218BF002119
:1015B0001AF0010FD2B240F08A801AF0040F14BF63
:1015C0003846002004936270A0702046E170059AAE
:1015D0000899029B9847051EFFF62DAF039B3946DD
:1015E000059A12A82370049B84F802B06370069BCE
:1015F000E370029B9847071EC0F29180089BA9EBFD
:101600000B01059A4046C91A0A9BC91A029B9847C2
:101610000028C0F286802F444FF000080DF1380AF0
:101620003D18B04555D30021059A029B08469847BE
:1016300001E75E4600270EA89FE75E465F46A0E7EB
:1016400037469EE718F8021B374B18F8015C54F830
:101650002500984202D3354B984217D3079B23B1FC
:1016600004980EF01EF9002896D10B9BCBB907F118
:101670005803781C02370DEB030C16ABFFB253FA7C
:1016800080F00CF8101C00F8105C85E7079B2BB16C
:1016900004980EF006F900287FF47EAF1AF0010FCF
:1016A00008D006F15803711C0DEB030606F8205C08
:1016B000CEB271E71AF0040F3FF46EAF07F1580392
:1016C000791C0DEB030707F8105CCFB264E700202C
:1016D00078E718F80A3054F823908DF83730219BBA
:1016E000DBB133F81870059A01210DF13700029B28
:1016F0009847002815DB054427B94846FFF770FADC
:10170000471CBFB2059A39464846029B98470028B5
:1017100007DB054408F1010883E7219FE3E73D4625
:1017200089E6054687E600BF8052010894850108D6
:1017300061640108545A0108014B1860704700BFEA
:101740000808002480B505460E46174698460DF059
:10175000D5F9DFF82090034613F088FD0446424691
:1017600049F8003039463046A84754F8090002F0DD
:1017700031FA00BF08000000032800B508D90A4B61
:10178000092213F073FD1A504FF0FF305DF804FB8F
:101790002823BFF35B8F5843044B1B58BFF35B8F69
:1017A000002BECD00020F1E70C0000001015002405
:1017B00038B504461546FFF7DFFF00280BDB094A62
:1017C00059B1282303FB04235B688B4205D0064BE9
:1017D00013F04CFD1D50002038BD28235C431059E8
:1017E000FAE700BF081500240C00000038B50446D5
:1017F0001546FFF7C1FF00280DDB2823074A634386
:10180000D0184068086015B10C3313442B602823AE
:101810005C43105938BD0020FCE700BF08150024C8
:1018200070B54FF0FF334FF0FF321B4800250CF02E
:10183000ADFB1A4BBFF35B8F1A68BFF35B8F7AB1B6
:1018400001352833042DF5D1154B17224FF0FF3504
:1018500013F00CFD1A5010480CF012FC284670BD15
:101860002824BFF35B8F6C4353E8000F013043E83B
:1018700000010029F8D10B4EBFF35B8F33193251B1
:101880005A6004F10C00304412F049FF04F12000CA
:10189000304413F041FADEE7140A00241015002446
:1018A0000C0000000815002410B40446104628223D
:1018B000084B54431A191951506040B1C26832B1F3
:1018C0000C3440F20512234410BC0EF0CFBA10BC09
:1018D000704700BF081500242823114943430833EB
:1018E0000B4430B5BFF35B8F1A68BFF35B8FB2B1A7
:1018F000541EBFF35B8F53E8005F954204D143E869
:10190000004CBCF1000FF6D1BFF35B8FEAD1012A86
:1019100005D12823584300230A180B50536030BDCB
:1019200008150024324B70B55A6912F4003211D1F7
:10193000BFF34F8FBFF36F8FC3F85022BFF34F8FAA
:10194000BFF36F8F5A6942F400325A61BFF34F8F71
:10195000BFF36F8F264A5369D90327D4536913F411
:10196000803323D1C2F88430BFF34F8FD2F8803058
:1019700043F6E074C3F3C900C3F34E335B0103EADB
:101980000406014646EA81750139C2F86052F9D26F
:10199000203B13F1200FF2D1BFF34F8F536943F473
:1019A00080335361BFF34F8FBFF36F8F114B124AD8
:1019B0001A60124BDA6822F0070242F00202DA6083
:1019C0009A6942F440429A619A699204FCD50C4BA0
:1019D0001A6841F20303B3EB124F06D1094AD2F859
:1019E000083143F00103C2F80831002070BD00BF88
:1019F00000ED00E0080900240090D00300480258E0
:101A00000010005C008000512DE9F04704460746B5
:101A10004FF00109DFF8508014B93846BDE8F0876F
:101A200094FAA4F5B5FA85F509FA05F32E0108EB49
:101A300005156FEA030A24EA03042B7B002BEBD085
:101A400058F806301B694BB946440422284607EA79
:101A50000A077368196800F055FADDE728469847C9
:101A60000028D9D1F0E700BF8C5B010830B5002217
:101A700089B00F490F4813F0C4F900220023002455
:101A80000D4D0E4928460094CDE906230E234FF450
:101A90004072CDE90334CDE90144094B0CF050F913
:101AA0000849284612F020FE204609B030BD00BF8C
:101AB000C91A000868100024E00B0024801F0024CD
:101AC000A91D00083D65010801480CF049BB00BF95
:101AD000BC0A00242DE9F04780461E480F460EF050
:101AE00048FC064678B300252846BDE8F087237BEE
:101AF00073B12368DB680BB12046984723681B69E4
:101B0000CBB9636804222046196800F0FBF901365E
:101B100010344C45EBD3B8F1000FE5D0002DE2D0E6
:101B20002846FFF771FF0546002FF7D000216420FB
:101B30000CF0CCFFF2E7204698470028E1D00AFAE3
:101B400006F31D43E3E7044C0546DFF810904FF021
:101B5000010ADEE7B81500248C5B01089C5B0108D4
:101B6000014B53F8200070470C5C010808B5034690
:101B700008462BB1044A136000F062FC002008BD47
:101B80006FF01500FBE700BF0C08002410B5044CF3
:101B9000237813B903480CF0E3FA0123237010BD36
:101BA000E71E0024BC0A002410B5044608480EF0C5
:101BB000E0FB5CB1074BBFF35B8F53E8001F0139BB
:101BC00043E80012002AF8D1BFF35B8F10BD00BFBD
:101BD000B0150024B41500240020064BBFF35B8F22
:101BE000014653E8000F43E80012002AF9D1BFF381
:101BF0005B8F7047B015002470B5FFF7EDFF084C00
:101C00000546084EB44200D370BD63685B792BB1C2
:101C100023685B6813B12946204698471034F1E7E2
:101C20008C5B01089C5B010810B5044C04492046FC
:101C30000EF025FA034B1C6010BD00BF7009002494
:101C4000F85B0108A815002408B5084A00234FF4E2
:101C50007A7107481370074A1360074A1360FFF749
:101C600085FFBDE80840FFF7DFBF00BFE81E002486
:101C70008D030108B0150024B4150024014600228C
:101C8000002301480EF01CBA7009002401480EF030
:101C9000B5BA00BF70090024024B014618680EF067
:101CA000FFBA00BFA815002401480EF035BB00BFE5
:101CB00070090024254B70B51878002844D0FFF730
:101CC000E5FF054690B1224BBFF35B8F53E8001F41
:101CD000013943E80012002AF8D11E4CBFF35B8F94
:101CE0001D4EB44226D32846FFF7D6FF1B4B1C4C93
:101CF0001B68002B12DD13F03DF80A220023FEF7CB
:101D000005FED4E90032C01A40F2E93361EB02016A
:101D1000984271F1000101D3FFF76EFFD4E9003260
:101D200013F57A7342F10002C4E90032BDE8704055
:101D3000FFF7BABF63685B7923B123682946204661
:101D40001B6898471034CCE770BD00BFE71E002425
:101D5000B41500248C5B01089C5B0108B0150024BD
:101D60006010002470B50D4D297861B90C4C01202C
:101D70000C4EFFF7AFFEB44206D3FFF79BFF0028DF
:101D8000FBD101232B7070BD63685B791BB12368A5
:101D900020469B6898471034EDE700BFE81E0024FA
:101DA0008C5B01089C5B010800212DE9F047084687
:101DB000FFF790FE044658B34FF4FA784FF000094D
:101DC0001C4B13F053FA1C4A1B58136033B11B4BC6
:101DD0001B68092B02DD1A480CF0C2F90025194FC7
:101DE000DFF85CA044B12046FFF70EFE044618B9A8
:101DF0004FF0FF384FF0FF39FFF75CFF064628B978
:101E0000B5B942464B4650460CF0D0F93546E9E7A5
:101E10004FF0FF384FF0FF39D2E72B689B691BB1B9
:101E200000222846114698471035BD42F5D3E8E711
:101E3000054DFAE708000000AC150024B415002495
:101E4000BC0A00249C5B01088C5B010813B5184890
:101E50000EF08FFA174B1B787BB14FF01003EFF3A6
:101E6000118483F31288BFF36F8FFFF723FF84F38E
:101E70001188BFF36F8F02B010BD0F4B1B68002B92
:101E8000F9D050B9002200230C48CDE9002342F2DA
:101E9000107200230DF08CF8EDE70928EBD107480C
:101EA00012F0BBFF064802B0BDE810400CF058B974
:101EB000B4150024E81E0024AC150024681000248A
:101EC000BC0A0024064B10B504461B6898472146FF
:101ED000A06004480EF072F9BDE81040FFF7B6BFED
:101EE0000C08002470090024044A054B9B1AB1EB2E
:101EF000D30F34BF52F83100002070474C5A01080C
:101F00008C5B0108084BC31A1B1110B401334468E1
:101F1000237143689A7101224368196043685A71BA
:101F200010BCFFF733BE00BF8C5B01082DE9F04FFA
:101F3000C1F34A268FB00D4690460C0D05900693CE
:101F4000002E50D0002709AB4FF0040B4FF00A0AC7
:101F500001933A460BAB31464046CDF808B0CDF878
:101F600000A0B1460D97CDE90B77FFF73BFAB0F52E
:101F7000006F03460CD3D8F8043040F2FF72022100
:101F80001D4800921D4A0EF095FA0FB0BDE8F08F83
:101F9000C0F30A0604F117000793184466F35325AB
:101FA00020F007008008FFF769FE044680B1079B18
:101FB00000F11001124A40460B914946CDF808B095
:101FC000CDE90C3709ABCDE900A30BABFFF70AFA5B
:101FD00066F35325069B059920462A460FB0BDE8B7
:101FE000F04F0EF004BA04F1170020F0070080084B
:101FF000FFF744FE0446EBE7645A01085265010806
:10200000C30301082DE9F04F87B004460F469346FD
:102010009846DDE91269DDE9105AA6B3102133466E
:1020200052460020CDF80090CDF81490FFF708F844
:10203000014604F0070405F117000BF0070B134BE2
:10204000E400084403EA4123039144EA8B1420F09E
:1020500007001C438008FFF711FE44EA05540546BB
:1020600040B13EB13346524603991030CDF800904E
:10207000FEF7E6FF434622463946284607B0BDE84C
:10208000F04F0EF0B4B93146D3E700BF00FE0F00A9
:102090000EB403B503AB0146054853F8042B019376
:1020A00002F07EF802B05DF804EB03B0704700BFA9
:1020B00001050108CA0605D48B064CBF0249034935
:1020C000FFF7E6BF704700BFF67C0108F57C01080A
:1020D0002DE9F04F89B09A4604460D469DF84CB064
:1020E000179E0692DDE914730593169B0493BBF1CA
:1020F000000F00F0858006F0080306F00209079340
:102100000EF05DF90246002849D086492046FFF7C7
:10211000BFFF8046B9F1000F08D016F0440F40D140
:102120002A4681492046FFF7B3FF804406F00103A9
:1021300053B17E4B20467E4953F82B207D4B002A1D
:1021400008BF1A46FFF7A4FF06F00803002B54D07F
:10215000794B2046794953F82B20FFF799FF054624
:10216000069B2BB11A4676492046FFF791FF05449E
:10217000BAF1000F05D0524672492046FFF788FF9A
:1021800005444544002F49D1049B002B4FD1F30750
:1021900000F1C18031462046FFF78CFFB5E0804654
:1021A000B8E7694B18680028BFD0684B4FF47A79BC
:1021B0004FF461614FF03C0C1B68B5FBF3F5B5FBC8
:1021C000F0F300FB135509FB05F5B3FBF1F2B5FB8A
:1021D000F0FE01FB123100FB1E55B1FBFCF309FBC5
:1021E00005F50CFB1311B5FBF0F50091204658499D
:1021F000CDE901E5FFF74CFF97E706F00805AFE7EB
:10220000BAF1010F06D1002F65D1049B002B7CD0C1
:1022100000250CE0002FF8D04E485DE04E483B46CC
:1022200022464E490DF00CFB049B002B69D0DFF8D1
:102230003081DFF83091049F4FF0000A314620468C
:10224000102F28BF1027FFF735FF554546DC059BAB
:102250004FF0010A494620461A78FFF719FF1AF095
:10226000070F03D141462046FFF712FF57453CD9DF
:10227000059B4946204613F80A20FFF709FF0AF19B
:10228000010ABAF1100FEAD14FF0000A3649204690
:10229000FFF7FEFE5246059B20469A5C334B995C45
:1022A00011F0970F324908BF2E22FFF7F1FE0AF115
:1022B000010ABAF1100F1DD01AF0070F03D14146E1
:1022C0002046FFF7E5FE57455246E4D841462046F2
:1022D000FFF7DEFEEBE720485D46A0E741462046DB
:1022E0000AF1010AFFF7D4FEAFE722492046FFF7C3
:1022F000CFFEC4E7059B3B440593049BDB1B049383
:1023000099D1BBF1000F7FF442AF204609B0BDE880
:10231000F04F0EF0E8B8074A20460549FFF7B8FE2F
:1023200038E700BF966501089A6501081C5C010842
:10233000A570010891650108305C0108BF650108BE
:10234000C5650108C9650108C0150024BC15002435
:10235000A36501083705010801050108A14100082E
:10236000D6650108CE650108D86501088484010896
:10237000DA650108D46501082DE9F0410F8886B0BF
:102380004B6805460C4690468E68C7F382175BB1D2
:10239000144A9B1A43F3CF01002921DB2078C0F3B4
:1023A000C200FFF7A1FD03462146608851F8102BBB
:1023B000C0F30B100197C2F34A22002A01EB02047A
:1023C0004FF0000208BF00210092CDE90408CDE9DA
:1023D000021428463146FFF77BFE06B0BDE8F081C7
:1023E0000023E1E74C5A010842F20F73114A8B4275
:1023F00073B5044628BF0B460568052168460CF0F6
:10240000D5FE636806460B2228465B680A490EF033
:102410005DF863683246694628465B680EF056F8F8
:1024200063681B2205495B6828460EF04FF802B02E
:1024300070BD00BFA07F0108F9650108DD650108D6
:1024400000210123064A904206D8064A01B9012319
:102450001360054B18607047400801215B00F2E7EC
:1024600040420F00BC150024C0150024F8B50D46ED
:1024700004464618054FB44201D12846F8BD14F869
:10248000011BBB6801485B689847F4E7C05401082A
:10249000014B036001207047785C010807B5064ACC
:1024A00003469268012100920448054A0EF002F8A2
:1024B00003B05DF804FB00BF941D0024345B0108E9
:1024C000B5660108F7B507460E461446FFF7A8F9AA
:1024D000051E18DB3CB97B1E012B04D8022E17D039
:1024E000012E08BF0624F1B201ABA2B2B8B203F0CC
:1024F0003BFC061E0EDA28467642FFF7EDF9104B3C
:1025000012F0B4FE1E504FF0FF35284603B0F0BD68
:102510001124E8E701980023436083655C3012F0E2
:1025200077F90198743012F0F7FB062C02D101986C
:102530000FF05BF8034A28460199FFF7B5F9E4E785
:102540000C000000885C010837B5069D0446E3B91D
:102550000093002200230E4903F096FE04F15C0074
:1025600012F056F904F1740012F0D6FB214605F181
:102570005C0012F079F920460FF037F805F174008D
:1025800003B0BDE830400CF0D1BA03B030BD00BF9D
:10259000FD0501082DE9F341DDE908580C46074621
:1025A00058EA05010A9E13D014F1690F02D014F104
:1025B0000B0F0DD1684612F003FCDDE90023134335
:1025C0000ED114F1690F0CBF6FF00B046FF06804AB
:1025D0006442214B12F04AFE1C504FF0FF3030E0B5
:1025E000B8F1FF3F08BFB5F1FF3F0AD0B8F1000FC7
:1025F00015D10A23B5FBF3F03368834294BF3360EF
:102600003060F86F08B10DF0F7FF14F1690F306812
:102610000CD10A21A0FB01010CF058FA08E00A22B3
:10262000002328464146FEF771F9E5E70B34F0D068
:1026300033685B00642B28BF64233360F86F18B9DC
:10264000002002B0BDE8F0814FF0FF324FF0FF33C1
:102650000DF0D0FFF4E700BF0C00000038B540F2E9
:1026600003140346A14259D0B1F5827F0ED204294A
:1026700020D0B1F5817F28D0032916D0474B5F22A7
:1026800012F0F4FD1A504FF0FF3012E045F21B44F7
:10269000A14272D045F22140814269D040F205103A
:1026A0008142EBD11268DA670DE0806DC0F3400023
:1026B000800338BD816D126821F00201520448BFC9
:1026C00041F0020181650020F3E7D2E9000194683E
:1026D0008288D50718D50A6894425BD003F15C0460
:1026E000042514610A68547B65F3050454730A6871
:1026F000947B6FF3451494730A68D4686FF3943431
:10270000D4600A6814320A608288520703D49B6D31
:1027100013F0050FD7D06FF07700CAE711688888EB
:10272000C5070FD552681068C06810F4FE1F02D1AB
:10273000986DC40703D5C88840F00100C8801068B0
:10274000143010608A88500742BFCA8842F00402E1
:10275000CA809A6D520742BFCA8842F00802CA80F6
:102760009B6DDB07AFD5CB8843F01003CB80AAE786
:102770009A6D42F002029A65A5E700231468194693
:102780001A460DF099FF6FF00043984294BF206005
:10279000236098E76FF00B008BE700BF0C00000090
:1027A0002DE9F04105460E461746104CDFF84080F3
:1027B000444508D30F4B6A2212F058FD1A504FF0CF
:1027C000FF30BDE8F0812368AB4200D063B9A36855
:1027D0003A4631462846984730B1E3683A46314692
:1027E0002846BDE8F04118471034E1E73C5A01089B
:1027F0004C5A01080C00000013B5B0F886300021D7
:1028000004460022C3F341030091032B4FF0000361
:1028100018D10EF0EAFF042320466360A36D43F055
:102820000403A3650DF029FF204603F04DFB031EB2
:102830000BDA5B42064A12F019FD13504FF0FF30DD
:1028400002B010BD03F020FDE5E70020F8E700BF6F
:102850000C00000037B501AA694605460DF0BFFE21
:10286000044648B90E4B09224FF0FF3412F0FEFC2B
:102870001A50204603B030BD4FF0FF3201984FF0A0
:10288000FF330DF0B7FE009B20469B689847044637
:1028900001980DF0B1FE2846FFF71EF8E9E700BFEA
:1028A0000C00000037B505460C4611BBB0F8863069
:1028B00000220091C3F34103032B4FF000030DD11D
:1028C0000EF093FF031E0CDA5B420F4A12F0CEFCAF
:1028D00013504FF0FF34204603B030BD03F0D4FC5A
:1028E000F0E7AB6D284643F00103AB650DF0C5FE84
:1028F000F1E74C1E12F0BAFC034B012C94BF862268
:1029000016221A50E5E700BF0C00000013B504467C
:1029100003F0FEFA031E07DA5B420D4A12F0A6FC32
:1029200013504FF0FF3006E0B4F88630C3F3811344
:10293000022B02D0002002B010BD636800220549BE
:1029400020460093002303F09FFC031EF2DAE3E726
:102950000C000000FD0501082DE9F043B0F88630B9
:10296000914685B00446C3F341028846022A3DD011
:10297000012A856D13D16B0707D54368002B35DD20
:1029800012F074FC234A135004E0224B782212F018
:102990006DFC1A504FF0FF3005B0BDE8F08315F024
:1029A0000205C3F3811342681DBF002600271A4D9C
:1029B00047F2305608BF0027012B19D1002300929F
:1029C0001649002203F060FC031E03DA5B4212F09A
:1029D0004DFCD7E763684A464146204602932B46A2
:1029E000CDE900670EF0A6FE031EEFDB0020D3E763
:1029F0002B4602924A46CDE900670EF09BFE031E6D
:102A0000E4DB63680022054920460093002303F0BD
:102A10003BFCE9E70C000000CD050108FD050108BD
:102A200073B50D461646694601AA0DF0D8FD044659
:102A3000B0B1009B9B69DBB14FF0FF324FF0FF3329
:102A400001980DF0D7FD009B204632469B69294630
:102A50009847044601980DF0CFFD204602B070BDA6
:102A60000923044A12F002FC4FF0FF341350F4E73C
:102A70005F23F6E70C00000013B504460EF00EFECF
:102A8000031E08DA5B42094A12F0F0FB13504FF0C4
:102A9000FF3002B010BD00230022054920460094FB
:102AA0000EF0A3FE031EEDDB0020F2E70C00000099
:102AB000492500082DE9F04F5B068FB016464FF010
:102AC000FF384FF0FF394FF00A0204460D46189FB9
:102AD0000B92CDE90C8903D4836D13F002034BD024
:102AE00000220023CDE90C2308A812F045F908A81C
:102AF000DDE90C23DDE9088912F03EF92C49204676
:102B0000DDE90823CDE90623636800220093002352
:102B100003F0BAFB031E36DB4FF0000A0DF12C0B5D
:102B20006168DDE90C23002F37D004912046294647
:102B3000CDF804A0CDE90223199B324600933B4611
:102B40000EF0D3FE002825DA0146CDF808B0204665
:102B5000DDE90C23CDE9002342464B46FFF71AFD81
:102B6000002817DB08A8DDE9062312F029F9DDE9C2
:102B70000823CDE90C23D3E70CAA052103F05CFC64
:102B80000C4A0023B0E75B420B4A12F06FFB135074
:102B90004FF0FF300FB0BDE8F08FCDE90023029178
:102BA0003B463246294620460EF04AFECAE700BFA1
:102BB000FD050108A08601000C0000002DE9FF4181
:102BC0000D46164602A903AA1F460DF008FD04464D
:102BD000E8B1029B5B6A13B34FF0FF324FF0FF3353
:102BE00003980DF007FD0B9B2046324601932946C2
:102BF0000A9B0093029BD3F824803B46C0470446BF
:102C000003980DF0F9FC204604B0BDE8F0810923DB
:102C1000044A12F02BFB4FF0FF341350F3E75F230D
:102C2000F6E700BF0C0000002DE9F0474FF0FF333E
:102C30008CB015464FF0FF3204460E46CDE90A230C
:102C40000A2309936B0603D4836D13F0020339D072
:102C500000220023CDE90A2306A8002712F08CF8F1
:102C600006A80DF1240ADDE90A23DDE9068912F040
:102C700083F8DDE90623CDE90423DDE90A233146A3
:102C800020460297CDE9002300232A460EF00CFED1
:102C900000281EDA0146CDF808A02046DDE90A2307
:102CA000CDE9002342464B46FFF774FC002810DBB9
:102CB00006A8DDE9042312F083F8DDE90623CDE957
:102CC0000A23DAE70AAA052103F0B6FB024A002329
:102CD000C2E70CB0BDE8F087A086010073B50D46D1
:102CE0001646694601AA0DF07AFC0446B0B1009B75
:102CF0005B6BDBB14FF0FF324FF0FF3301980DF00B
:102D000079FC009B204632465B6B29469847044677
:102D100001980DF071FC204602B070BD0923044AF1
:102D200012F0A4FA4FF0FF341350F4E75F23F6E7F4
:102D30000C000000B0B5C36F00AF04460A4693B95B
:102D40006D4688B06A461149C2E90510032142F870
:102D5000101F0F484FF4C451FFF7E8F86FF015004B
:102D6000AD46BD46B0BDC36D0BB10020F9E7C16FE4
:102D7000D2E9002374300BF0F7FE0028F1DBA36DDD
:102D80005B07F2D560684042EBE700BFDC660108F4
:102D9000345B01082DE9F341074688461646FEF7E5
:102DA0003FFD051E16DBBB6D980719D44FF0FF32AF
:102DB0004FF0FF3369463846CDE90023FFF7BAFFED
:102DC000041E0DDA28466442FEF786FD384B12F0E9
:102DD0004DFA1C504FF0FF35284602B0BDE8F08197
:102DE0000022002307F15C000BF086F9044640B98D
:102DF0002846FEF771FD2E4B0B2212F037FA1A50BF
:102E0000E8E75C3011F058FDA8B190F8333099072D
:102E100011D5A36D284643F00103A365FEF75CFDC1
:102E200020460DF02AFC204603F04EF8204B71227C
:102E300012F01CFAE3E7B4F886305A050ED51C4BA5
:102E4000712212F013FA1A502846FEF745FD20466B
:102E50000DF013FC204603F037F8BBE723F40073B2
:102E6000A4F88630B8F1000F0ED06EB1326804F1CC
:102E700028014046082A28BF082212F041F9238D74
:102E8000012B07D1082333600A4A21462846FEF762
:102E90000BFDA1E7022B01D11823F4E72846FEF72A
:102EA0001BFD034B862212F0E1F91A50CFE700BF59
:102EB0000C000000885C01082DE9F04F91B0064637
:102EC00089461F46DDF868801546002A52D0B0F8C2
:102ED0008630C3F38112022A40F0EC804FF0FF32BB
:102EE0004FF0FF337C06CDE9062303D4836D13F046
:102EF00002032ED000220023CDE9062317F002039F
:102F000006F15C04DDE906AB009337D01022002106
:102F10000AA812F01DF904230E948DF83530012112
:102F20005B4652460AA80CF07DF800F10B010346FF
:102F30000B2918D8994A0A41D00714D4204611F019
:102F4000B7FC044600BB964B0B2212F08FF91A50C7
:102F50000EE006AA042103F06FFA06A93046FFF737
:102F6000E9FE031ECADA5B4212F080F98C4A135064
:102F70004FF0FF35284611B0BDE8F08F52465B4652
:102F800020460BF0B9F8DCE7D0E903BAB8F1000F3E
:102F90004ED01B9B002B4BD0B6F8843001931B9B6B
:102FA0001E680EF071FE94F83330C3F30213A8F8D4
:102FB000003094F83330C3F30213012B60D10021A9
:102FC0001423072ECDE90A1344D90AA9204603F099
:102FD000B9FB064610B96FF068033DE00B99204637
:102FE0000EF0ADFE0028F6D194F8361020460EF013
:102FF000A6FE0028EFD1F368C8F804309DF804302D
:10300000112B3DD108AB0AA920460A9308230B9344
:1030100003F098FB0028DED00388A8F80230C4E94A
:1030200003BAB8F80030012B2DD108231B9A136086
:1030300020460EF0AEFF85420646494628BF0546AB
:1030400020462A460EF03BFF38B3554B692212F05A
:103050000DF920E06FF015035942514A12F006F9BC
:103060001150C4E903BA4F4A01214F480DF018FA34
:10307000009B002B7FF47CAF20460EF082FD77E7AB
:103080006FF08503E8E7022B01D11823CEE7444B0C
:10309000862212F0EBF81A50EAE7009B3BB9204673
:1030A0000EF06FFD17F0200F18BF354662E7C4E938
:1030B00003BAF7E7012A6ED14FF0FF3A4FF0FF3B1A
:1030C000DA07CDE908AB07D5C3F34103022B05D0DE
:1030D000802312F0CBF849E70923FAE77C0602D4F3
:1030E000836D990715D500220023CDE90823DDE97A
:1030F000082302A807F4807B0024CDE90595CDE9DB
:103100000A2311F039FEDDE90289069B4BB92346FB
:103110000DE013F00503EAD108AA042103F08CF9AD
:10312000E5E7B26D12F0040307D073685B42002B31
:1031300023EAE37527DA5B42CBE7D207F7D4DDE970
:103140000AA55AEA050311D13B4606AA05A930464D
:103150000DF0B2FA044420430FD0BBF1000FD6D0DB
:1031600042464B460AA811F02BFECEE70AA930468C
:10317000FFF7E0FD031EE7DAD9E75AEA0505ECD1CF
:103180006FF00A03D3E7BB073FF5F4AE294630469C
:103190000EF0D0FBEEE60025ECE600BF7EF7FFFF69
:1031A0000C000000FF660108345B01082DE9FF41B7
:1031B0000D46164602A903AA1F460DF010FA044652
:1031C000E8B1029B9B6A13B34FF0FF324FF0FF331D
:1031D00003980DF00FFA0B9B2046324601932946C7
:1031E0000A9B0093029BD3F828803B46C0470446C5
:1031F00003980DF001FA204604B0BDE8F0810923E0
:10320000044A12F033F84FF0FF341350F3E75F2312
:10321000F6E700BF0C0000002DE9F04F9DB083469B
:1032200014461D4608A84FF00009069111F0A4FDB0
:10323000DA46069F4E46CDF80C90DDE90823CDE92D
:1032400004230DAB0A93F7B9002E73D0B5F1FF3FFD
:1032500008BFB4F1FF3F4FF0FF3005D0A042AF41AF
:1032600061D30A20B4FBF0F0069B4FF48272019008
:10327000494600935B4603980DF099F90746384696
:103280001DB0BDE8F08FDAF80000002829DB0CAA99
:103290000BA90DF0A4F9804618B34FF0FF324FF0A0
:1032A000FF330C980DF0A6F91CAB4FF48172414628
:1032B00001930AAB0B98009353460DF078F910F187
:1032C000780F034611D10022002308A811F054FD05
:1032D0000C98DDE90834CDE9043400240DF08CF9B4
:1032E00025460AF1080A013FADE713F1120F0C98C9
:1032F0000BD1039B1BB10DF07FF90126F1E70B9B6E
:10330000C14603930DF078F9F7E707930DF074F9D0
:10331000079B002BE5DA5B4211F0A8FF3C4A4FF017
:10332000FF371350ABE70A22002320462946FDF75A
:10333000EDFA99E7DDE9042308A8DFF8D88011F059
:103340003FFDDDE9084522462B460DAC0A99091BD5
:10335000891008FB01F120460BF064FE00F10B021E
:1033600003460B2AD7D82C4F174117F00107D2D1AB
:103370000A94B946069D5C4695B9B9F1000F3FF431
:103380007EAF002F7FF47BAF08A8DDE9042311F0A6
:1033900017FDDDE908452B4625432246D5D16EE7CA
:1033A0002068E68000282CDB0CAA0BA90DF017F989
:1033B000824618B92023E380013722E04FF0FF3224
:1033C0004FF0FF330C980DF015F90AAB514640F25F
:1033D0000312009323460B980DF0E9F882460C98EF
:1033E0000DF00AF91AF10B0F0ED0BAF1000F04D04C
:1033F000CAF1000311F03AFF90E7B4F90630002B50
:10340000DAD10834013DB7E74FF00109F9E700BF11
:103410000C000000CDCCCCCC7EF7FFFF062938B5E0
:1034200014461A46049B30D004DC99B3012905D018
:103430006D2334E02929FBD1432C2CE0042C14D03B
:103440000CDC022C18D0032CF2D1B0F88610C1F39A
:1034500081111B68042B21D111600BE00F2C12D0BD
:10346000262CE5D1B0F88410F3E71B68042B15D1A6
:1034700043681360002038BD092102F0DDFF0028F9
:10348000F8DA43420BE00A21F7E7012CD0D16FF0C4
:103490007A00F0E7012CCBD10821EEE71623034A8E
:1034A00011F0E4FE13504FF0FF30E4E70C00000091
:1034B000062938B5144605461A46049B4DD005DC4E
:1034C00000294FD0012907D06D2331E02929FBD1F4
:1034D0001A2C08D0432C46E00F2C1FD005DC022C00
:1034E00015D00D2CF0D1002038BD192CECD1B0F83E
:1034F0008610C1F3C2000138012837D813B1BAB31E
:10350000107868B921F40061A5F88610EBE709216D
:1035100002F044FF0028E6DA434209E00A21F7E717
:10352000082B25D1104601F073FF031E07DA5B421A
:10353000114A11F09BFE13504FF0FF30D4E701F019
:1035400089FCB8B101F012FFB5F8863085F8880023
:1035500043F40063A5F88630C5E7012CB4D16FF0C1
:103560007A00C1E7012CAFD10821D1E76A23DFE758
:103570001623DDE71323DBE70C00000013B5034639
:103580001446084669B162B1B3F88620D1050AD461
:103590008023134A11F06AFE13504FF0FF3002B03F
:1035A00010BD1623F5E7C2F38111012903D1C2F33F
:1035B0004102022AECD11A8D012AF2D1ADF8002085
:1035C00069465A8DDB6AADF8022022680193082A09
:1035D00028BF082211F094FD082300202360DEE7B5
:1035E0000C000000034637B50846198C1546012922
:1035F00003D100245A6A01943AB90D4B162211F0F6
:1036000035FE1A504FF0FF3010E05B8CADF8001023
:103610006946ADF8023013682A680193082A28BF6A
:10362000082211F06DFD082320462B6003B030BD49
:103630000C0000002DE9F047804600AF0C46002941
:1036400036D0E9468AB0A3686D46D1E900121C481D
:103650004FF0050A2E46C5E90501C5E9072346F8DE
:1036600010AF002332464FF421511648FEF75EFC9E
:10367000CD466369AD46D4E903121348C5F810A0DE
:10368000C5E90501C5E90723002332464FF421515E
:103690000C48FEF74BFCCD46E3690C4A0121094872
:1036A0000CF0FEFEA3690A4A012106480CF0F8FE60
:1036B000214640460AF038F9BD46BDE8F08700BF14
:1036C000216701086C5B0108506701087F670108EA
:1036D0008E67010830BFFFF7FDBF00BF114B124AD4
:1036E0002DE9F041D518DFF844800746013DB5FBD0
:1036F000F3F55D430E4B08EB0304013CB4FBF3F41C
:1037000003FB04540E1B0B49304611F0F9FC7019F1
:10371000083E4246002111F01BFD04F108007E67BF
:10372000BDE8F0810100000000000000080000007A
:10373000040000009C5B0108044B996858698842AA
:1037400003D003494FF080520A607047941D002453
:1037500004ED00E070B5294C06460D46284829497D
:103760000DF06EF8A36AD9043CD5254826490DF022
:1037700067F81720A36A1A0504D5214823490DF0DC
:103780005FF818201D4CA36A9B0512D51C482049E0
:103790000DF056F8A36BA26A100409D51D4A012149
:1037A00017480CF07DFE1EB1A36A23F40043A36208
:1037B0001920124CA36A590504D5114816490DF079
:1037C0003FF81A20A36ADA050ED50D4813490DF00B
:1037D00037F81B20094A936A43F47F43936200231E
:1037E0002B7070BD1620C5E7A36A9B04F2D5044870
:1037F0000B490DF025F81C20ECE700BF00ED00E0C0
:103800006C5B0108BC670108D2670108E367010827
:10381000F66701080F680108246801083F6801087D
:103820005768010810B5204C204921480DF008F8D0
:10383000A36A990136D51E481E490DF001F81E20D5
:10384000A36ADA0104D51A481B490CF0F9FF1F20BE
:10385000154CA36A1B0304D5154818490CF0F0FF5A
:103860002120A36A590304D5114815490CF0E8FF3B
:1038700022200D4CA36A9A0304D50D4811490CF07F
:10388000DFFF2320A36ADB0304D509480E490CF0AF
:10389000D7FF2420044A936A6FEA03436FEA134375
:1038A000936210BD1D20CBE700ED00E086680108A3
:1038B0006C5B01089E680108B1680108CB680108CB
:1038C000E96801080E690108286901082DE9F84333
:1038D000364D804689463648364917460CF0B0FFCB
:1038E000AB6ADE0627D51124334931480CF0A8FF16
:1038F000AB6A1D0704D5122430492D480CF0A0FFF7
:103900002A4DAB6A980718D52D4929480CF098FF25
:103910006E6BAB6A190646D52A4A33460121244804
:103920000CF0BEFDB9F1000F03D0AB6A23F08003A9
:10393000AB62132403E01024DAE76FF015061B4D89
:10394000AB6ADA0704D514241F4919480CF078FF34
:10395000AB6A9B0604D515241C4915480CF070FF72
:10396000124B9A6AD50602D49A6A90070AD55B6808
:10397000190507D54146304600F01CFA10B180F316
:1039800009880224094B9A6A920603D55A6A22F4DE
:1039900000525A629A6A204642F0FF029A6200235D
:1039A0003B70BDE8F8836FF01506C2E700ED00E05C
:1039B0006C5B01085369010869690108E367010844
:1039C0009C690108B4690108CA69010857680108BF
:1039D000604BF0B55F688DB004460025C7F308065C
:1039E00085F31188BFF36F8F02F07F43B3F17F4FF0
:1039F00007D102F00C03082B13D1574957480CF09C
:103A00001FFF00252C4600238DF80F30F31E092BD5
:103A100000F28D80DFE803F00A81857E8B8B8B8B33
:103A20008B8910074CBF0C460125ECE74C494B48ED
:103A30000CF006FF474E00238DF80F30F36A9A070B
:103A400005D5484945480CF0FBFE002334E0F36AF5
:103A5000002B01DA4449F5E7F36A5B00F5D54349E9
:103A60003E480CF0EDFE7369A26943F48073736104
:103A7000BFF34F8FBFF36F8F736932F8022C23F4BB
:103A800080737361BFF34F8FBFF36F8F4DF6027377
:103A90009A420AD0B36ADBB273B30DF10F0201216F
:103AA0002046FFF713FF034606E02368304A012152
:103AB0002A480CF0F5FC23689DF80F20D2B904AE1B
:103AC00004F120072068083454F8041C3246BC4234
:103AD00003C21646F6D10B9A002D36D0C2F3080168
:103AE00021B96FEA52226FEA42220B9204A91846CA
:103AF000FFF7A0FD0DB0F0BDB36A13F47F4F05D002
:103B00000DF10F010120FFF725FECCE7B36AB3F5F5
:103B1000803F9AD3FFF786FEC5E70DF10F02002123
:103B2000BEE70DF10F010020EDE712498AE717F417
:103B3000F87F114A114B18BF1346103E104A01215D
:103B4000064800960CF0B6FC7FE722F4FF7222F0E4
:103B50000102CAE700ED00E0176A01086C5B01088A
:103B6000426A0108596A01087A6A0108886A0108EC
:103B7000A76A0108C36A0108FE690108E96901082A
:103B8000E76A0108024A536943F010035361704722
:103B900000ED00E0EFF30880EFF3098101B5724614
:103BA000FFF716FF01BD00BF102080F31188084801
:103BB0004FF40461401880F30988EFF31480022168
:103BC000084380F31488BFF36F8F00F0B9F800004A
:103BD000802C0024084B9B6883420BD1EFF30583B4
:103BE00043B1064B5A6842F080525A605A6A22F436
:103BF00000425A6211F04CB8941D002400ED00E020
:103C0000094A6FF00A019368D967084998674B68B9
:103C100043F080534B60002383F31188BFF36F8F11
:103C20009368D86F704700BF941D002400ED00E03A
:103C300015498A684FF030001044EFF3098C80E892
:103C4000F01F102080F31288BFF36F8F0F4F4FF0DB
:103C500000664A698A603E604FF074041419206857
:103C60000B4C2060906F0023936780F3118804B59C
:103C7000104600F011F9BDE8044002F1300090E870
:103C8000F01F8CF309887047941D002404ED00E0B8
:103C9000F01500241EF0040F0CBFEFF30880EFF3C3
:103CA0000980816911F8021C0229FFD001B50CF0CE
:103CB000BCFD01BD00B2002807DB0123410900F073
:103CC0001F00024A834042F82130704700E100E0C3
:103CD00000B200280CDB4309012200F01F00054957
:103CE0002033824041F82320BFF34F8FBFF36F8F03
:103CF000704700BF00E100E04209054B00F01F00E3
:103D000053F82220012303FA00F01040704700BF4F
:103D100000E100E000B2013100284FEA0111C9B210
:103D200006DB00F1604000F5614080F80013704749
:103D300000F00F00014B1954704700BF14ED00E074
:103D40000F4A08B522F07F020E4B9A60BFF34F8FE7
:103D5000BFF36F8FD3F8882022F47002C3F8882055
:103D6000EFF3148323F0040383F31488BFF36F8FFE
:103D700009F08CFE0AF01EFF00F062F809F0E2FE86
:103D80000000000800ED00E042F8203C203A009BD3
:103D900007495360019B21F001019360029B9161EF
:103DA000D3604FF08073D36100230265836770474F
:103DB00045170008094A0346906870B113F1160FC1
:103DC000406E05D0A0F140029A4205D8834203D24A
:103DD000814228BF0020704700207047941D0024B6
:103DE00014460B4A0D4608B50A4B9060426F1A60A4
:103DF00000F052F8204685F30988002163B681F36C
:103E00001188BFF36F8F00220023FDF79BFC00BFDA
:103E1000941D0024F0150024014910220A60704707
:103E200010ED00E072B6404080F31188BFF36F8F51
:103E3000BFF34F8F30BF62B6BFF36F8F704700BFC5
:103E4000002304481021C2180133A32B82F8001369
:103E5000F9D1704700E100E001B5EFF30580A0F172
:103E600010004FEAC0000449014409C99847BDE861
:103E7000014002490847000024550108393700086D
:103E8000024B0221024A034800F084B800000524D6
:103E900000000024C85C0108426E4021044B403AF7
:103EA00018461A60034AC3E90112012100F07CB8E8
:103EB000F415002400000B150F2808B5034607D998
:103EC0000C4801210C4A0CF0EBFA6FF0150008BD0C
:103ED0000A48C0F898300A6822F01F021A4342F0DC
:103EE0001002C0F89C208A6842F00102C0F8A020AD
:103EF0001846ECE7845A0108FE6A010800ED00E06C
:103F0000F0B50E4685B01F4604460025B5420DDAD1
:103F1000606810B397B1431E18420AD0104A2B466E
:103F2000012110480CF0BCFA6FF01502104605B0E4
:103F3000F0BD1F28F2D921680B42EFD1236801A9F7
:103F400001930CF085FCA3680343D0B20393FFF701
:103F5000B3FF10F1160FE7D0421C01350C34D5E742
:103F6000246B0108845A0108044B0522C3F89420ED
:103F7000BFF34F8FBFF36F8F704700BF00ED00E0BE
:103F8000BFF35F8F024B0022C3F89420704700BF3D
:103F900000ED00E010B5034C01232278FFF7B0FFDD
:103FA000207010BDEA1E0024094A08B500231278CB
:103FB000FFF7A6FF10F1160F03D0064B00220F28C3
:103FC00000DD08BDC3F898000130C3F8A020F6E773
:103FD000EA1E002400ED00E061480368102BF0B5F4
:103FE00085B000F2BA80FFF7CBFF5E4A5369DB036E
:103FF0001ED50023C2F88430BFF34F8FD2F8803033
:1040000043F6E075C3F3C904C3F34E335B0103EA1F
:104010000507214647EA81760139C2F87462F9D270
:10402000203B13F1200FF2D1BFF34F8FBFF36F8FFF
:10403000D0E9004100224B48A24201F10C010DD110
:10404000494D68460024494F2A70FEF721FA06467A
:10405000A64216D10020FFF787FF2DE0C0F8982078
:1040600051F80C3C23F01F031343013243F01003BB
:10407000C0F89C3051F8043C43F00103C0F8A03074
:10408000DAE700984FEA041C00EB0411CB683B40D0
:10409000B3F5000F4FD011D8B3F5001F35D0B3F5ED
:1040A000800F3DD0B3F5801F17D0314A0121314830
:1040B0000CF0EDF96FF0150005B0F0BDB3F1807FA5
:1040C00042D0B3F1007FF0D150F80C3088680CF08A
:1040D000BFFB4A6840F4802009E050F80C30886843
:1040E0000CF0B6FB40F088504A6840F43020039052
:1040F00001A92878CDE90123FFF7DEFE0028D9DBEE
:104100002B78013401332B70A2E750F80C3088680B
:104110000CF09EFB40F088504A6840F40020E6E72F
:1041200050F80C3088680CF093FB40F0E0604A686F
:1041300040F40030DBE750F80C3088680CF088FB66
:104140004A6840F08270D2E750F80C3088680CF072
:104150007FFB4A6840F08870C9E74FF0FF30ABE75B
:10416000B45B010800ED00E0EA1E00240000F0FF4F
:10417000476B0108845A010808B5024B1B68984731
:10418000002008BD00160024034B044A18609378F1
:1041900043F00203937070470016002418080024AF
:1041A000F0B587B007460E46144600211022684637
:1041B0001D4610F0CDFF02232A4621468DF802301D
:1041C0006846044BCDE9047601930BF08BF807B0F9
:1041D000F0BD00BF710801080649074821F007013A
:1041E000C1F1105208B502F5A0220BF0E7FD002046
:1041F00008BD00BFFB7F00240416002407B5084853
:10420000042283680DEB02011B689847002802DA3C
:1042100007F0CCFD0190019803B05DF804FB00BFEE
:104220009854010870B541690446867A0A4D59B11F
:10423000437ADB0706D42C2303FB06535B6A1B6817
:104240009B689847002363612C20214606FB0050A1
:10425000BDE8704010F013BBD40A0024827A2C21F0
:10426000054B01FB02339A6A1B7F801A1B3323F034
:104270000303B0FBF3F07047D40A002438B52C24B4
:10428000827A094B04FB02330C685B6A5B681A682C
:10429000944294BF0C600A60D3E90054FFF7DEFF3C
:1042A00005FB004038BD00BFD40A00242DE9F043CF
:1042B00085B0054690461C466846039110F05CFDAB
:1042C000DDE900674FF01003EFF3118983F31288E3
:1042D000BFF36F8F6B8B002B41D02A8B9A4225D96D
:1042E00000220023284609F007FF0446F0B189F3B5
:1042F0001188BFF36F8F039B002B41D032463B46A2
:10430000684610F05DFDA27A2C21234B204601FB6C
:10431000023303A95B6A1B681D68DDE90023A84717
:10432000606170BB2046FFF77DFF24E0698B4B1E68
:104330006B8389F31188BFF36F8F2B7F2A8B1B331D
:10434000AC6A521A23F0030302FB0344124B134AD4
:10435000EB1A9B105343A3722B7FE372CBE789F3D5
:104360001188BFF36F8F23464246284609F0C4FEEA
:1043700004460028BFD10024204605B0BDE8F083E4
:10438000636100230122636022812382039A6369AF
:104390006282E360F0E700BFD40A0024A38B2EBA48
:1043A00070B50C4C2C2500B970BD037A4668013BF2
:1043B000DBB20372002BF7D1C3604360837A05FB45
:1043C00003431B6A13B198473046ECE7FFF72AFF17
:1043D000FAE700BFD40A002400487047806B010848
:1043E0002DE9F843036807460D461B689E68002EBA
:1043F00000F0B08091F83330C3F30218B8F1010F28
:1044000040F089808B68D1F81890DC6801F008FBD7
:10441000036822699A4203D12C464FF0080822E033
:1044200004F11001484600F06DFD0028F4D1AB689E
:10443000D968103108460CF052FA02460028EBD138
:10444000284600F0E3F90446002871D08542E4D004
:1044500028460DF096FB94F8333068F3061384F881
:1044600033304FF4C168A36A23B93C4BA3620623DF
:1044700084F82C304FF47A7200230E21204602F08B
:104480005BF88146002853D0B8F5C16FC16849D0A8
:1044900094F83330C3F30213012B43D1A368DA68D5
:1044A000103210460CF01BFA00283BD010460CF0DE
:1044B00010FB236A09F10C001A68C1F806209B88DA
:1044C000A1F80C804B810E210CF0F4F949462046EE
:1044D0000DF07EFB20460DF0D7FB3A68B36921460C
:1044E00010689847064640B3A0684368A36000235D
:1044F00043600DF042FBB8F5C16F1BD128460DF0AB
:1045000020FBA3683846D968103100F005FB20462F
:104510000DF037FB0EE001220C4662F3061381F822
:1045200033309EE7A36A1A680A609B888B80C0E7D5
:104530006FF00B063046BDE8F883A06803462BB940
:104540004268A26043600DF018FBE0E71A8A5B68DE
:104550001644F4E76FF00106ECE700BF806B01083A
:1045600038B5036805460D499C6801236061201D2C
:10457000237610F028FA2B6818688368DB6833B15B
:104580009847430542BF237E43F00403237600F09F
:10459000D7FA637E43F00203637638BD59090108F8
:1045A00008B5084B5A683AB11B68002123B19A42FA
:1045B00004D104480CF0CCFA104608BD19461B681B
:1045C000F4E700BF241600242DE9F8430CF0D0FADC
:1045D0004FF0FF3306464FF0FF3221480CF0E7FA68
:1045E000204B1C685CB12568C6F5FA69DFF8748059
:1045F0001D4F34B91A48BDE8F8430CF0FCBA254603
:10460000F2E7626809EB0203002B21DC012120465E
:104610000CF0B6FA2246002140460CF099FA00232D
:1046200023607B6833B9C7E9004435B12B682C4659
:104630001D46DEE71C607C60F7E72B46F7E702F5D6
:10464000FA620A23A2FB0323084809F059FFD1E7C5
:10465000921B12F5FA6FF2D100221346F4E700BF65
:10466000101600242C16002434160024A010002458
:104670002DE9F74FDFF880A1044616465F484FF05A
:10468000FF3298464FF0FF330F469DF830900CF004
:104690008EFA0023DAF800B03A46214601935846D4
:1046A00001AB0CF09AFA054668BBBBF1000F02D1D2
:1046B000534810F0C2F9B8F1000F0BD0514801ABCC
:1046C0003A46214600680CF088FA18B13368036155
:1046D000B3888382B9F1000F0FD0002349482146E7
:1046E0003A46019301AB00680CF077FA01460028C6
:1046F0005DD033680361B3888382404803B0BDE86E
:10470000F04F0CF078BA0246019950460CF020FAAE
:10471000DAF8003013B93A4810F08FF9336805F130
:104720001808294637482B61B388AB820CF009FA88
:104730004FF00609AB69002BDFD04FF0FF334FF08D
:10474000FF32404609F0D8FC836880F82C9006467A
:10475000DB688362002C45D02368BFF35B8FDB6886
:10476000BFF35B8F9A0407D44FF0FF324FF0FF3353
:1047700004F16C000CF01BFA2368002B39D05B6845
:10478000314620465B6898472368BFF35B8F074636
:10479000DB68BFF35B8F9B0403D404F16C000CF067
:1047A0002AFA002FC6DA30460DF0EBF9C0E71648BA
:1047B00005688DB12A460CF0CBF90CF0D9F9C5E9A2
:1047C00001043B68EB60336829460E482B61B388CF
:1047D000AB820CF0B6F990E7FFF7E2FE0546002841
:1047E000EBD18AE74FF0FF324FF0FF336C200CF033
:1047F000DEF900235B68FFDE2C160024101600246F
:10480000A010002424160024341600242DE9F04FB3
:1048100087B08A469146054602AFE0B18368D3B1BE
:10482000FAB980690CF0D0FCD8B9A9698B68C3B11A
:1048300003F1300A1B6BA3B96C4688B002AA7A4810
:10484000C2E90501032142F8101F4FF4C251774815
:10485000FDF76CFBA546002630461437BD46BDE883
:10486000F08F734E4FF0FF324FF0FF3371480CF072
:104870009EF90023D6F800805246FB6007F10C0336
:10488000A96940460CF0A9F9044638BBDFF8A8B185
:104890000346DBF800000CF0A0F9064600283CD1E6
:1048A00066480468002C34D0224631460CF050F99A
:1048B000AB697B60B9F1000F3DD14FF47A720023F0
:1048C0001C21CDE9002378684B464A4601F016FFCB
:1048D000064688BB57480CF08EF9BDE7404507D027
:1048E0000246F96830460CF033F921460CF029F9FC
:1048F000504810340CF07FF954F8083C2E461B68E1
:104900001B69AC622B62062385F8243085F82C30B5
:10491000A2E7FFF745FE0446CAE728460DF011F965
:10492000014606F118000FF0B4FF0028C0D041483E
:104930000CF061F98FE72E46B0681C210C300BF0AB
:10494000B9FFB368D3F80C80002C5ED028460DF078
:10495000F8F8014604F118000FF086FFB369A36070
:10496000DAF80030E360A3681B681B693362002338
:104970002360DBF80430002B43D1CBE900440CF07A
:10498000F7F860602E4810F0E1F9084305D144F6CD
:10499000206200232B4809F0B3FD4FF0060B86F888
:1049A00024B0FFF719FD0821B062002386F82CB06F
:1049B000012288F80210042188F8003088F80120CC
:1049C00088F8033088F804B088F8051088F80630B5
:1049D00088F80720C8F81230A8F81630DAF8003046
:1049E000C8F81830336A1A68C8F808209B88A8F8F5
:1049F0000C307CB9AB68D8680C300368C8F80E304E
:104A000068E71C60CBF80440B9E77B681B681B694A
:104A10003362C2E7A368494698680CF0CAF80028D8
:104A2000EBD1C8F80E0055E7936B01088C5A0108CA
:104A300024160024101600242C16002434160024FA
:104A4000B0100024A01000242DE9F843DFF8B48052
:104A500005464FF0FF324FF0FF332B480CF0A7F81C
:104A6000D8F8004024B126680027DFF8A09094B958
:104A7000274F3C682CB126684FF00008DFF88C9077
:104A800024BB3B6813B923480FF0D7FF1E48BDE88D
:104A9000F8430CF0B0B8234615B1A268AA420DD174
:104AA000002120460CF06CF83946404622460CF0B6
:104AB0004FF8214648460CF044F83B4626B1326890
:104AC00034461F461646D2E73246F9E7234615B16B
:104AD000A26895420DD1012120460CF051F84146C3
:104AE000384622460CF034F8214648460CF029F8A6
:104AF000434626B13268344698461646C0E73246E9
:104B0000F9E700BF241600241016002434160024F0
:104B10002C160024A01000240A460146074808B5B8
:104B2000002300680CF059F820B101210CF028F89E
:104B3000002008BD6FF00100FBE700BF2C16002429
:104B400038B5124D2B7803BB114A124CC2E9003321
:104B5000114AC4E90033C2E9003310480FF058FE8F
:104B60000F4920460BF0EDFF01F148000FF050FE19
:104B700020460C490BF0E5FF0B490C480FF051FFA4
:104B80000B480FF0CCFD01232B7038BDEB1E002429
:104B90002C16002434160024241600245416002455
:104BA0003C1600246C160024C9450008A0100024FF
:104BB00010160024036804481BBA1B0C1B041B1AA4
:104BC00058425841704700BF0000FEA90A4A0346F8
:104BD00010B50CF010FA82420C460BD11B68186815
:104BE0008368DB680BB1984703461C420CBF012069
:104BF000002010BD0120FCE7CC0B00244FF0FF3358
:104C00004FF0FF3270B5054618480CF01FFA184BEC
:104C1000196879B10A684FF0FF334FF47A7659B9C1
:104C20005A1C1BD113480FF008FF1048BDE8704014
:104C30000CF03BBA0A46EEE7CC69098C641B06FB14
:104C40000141002909DD8B4228BF0B461AB11068CB
:104C500011460246E3E71046FAE700230A22054818
:104C6000A3FB022309F04CFCDFE700BF280A002465
:104C7000F0160024D01000242DE9F04105468846A6
:104C800016460CF0E5F9AC68002C38D062690027B4
:104C90001C4B13401C4A93421AD12388012B17D175
:104CA000221D1046FFF786FF90B908F1FF3003344C
:104CB0003B4610F8011F14F801CF61450FD10833AE
:104CC000DBB2202BF5D13178994201D817463370E9
:104CD00005F158000CF0E9F93846BDE8F08181EAA9
:104CE0000C010806EFD403F10800C0B201334900FB
:104CF000DBB2C9B29842E6D00C06E4D4F6E7274608
:104D0000E6E700BF00FF0200000102002DE9F047C6
:104D1000254E0CF07FF94FF0FF3280464FF0FF3305
:104D200022480CF093F934682CB1002527684FF421
:104D30007A7AA9463CB94046FFF760FF1B48BDE8B8
:104D4000F0470CF0B2B9E3692246218CA3EB0803CB
:104D50000AFB0133002B19DCA388012B06D1102399
:104D600004F10802A169124800F0E4FE23689DB92D
:104D700072683360944200D1736094F822302A46FE
:104D8000C4F8009069F3000384F8223057B13B68FF
:104D90003C4615461F46CDE72B6073689C4208BF12
:104DA0007560EAE73B46F3E7F0160024280A002482
:104DB000060004E010B50368002104469A7E0CF05A
:104DC0004EF968B9216802238B762068817E99426A
:104DD0002BD01C4A01211C48BDE810400BF060BBE1
:104DE000092120460CF03BF90028EBD00A2120468F
:104DF0000CF035F9C0F106032168DBB28B76206830
:104E0000817E9942E5D106290FD1062A18D00821C2
:104E10000CF03CF9002321460C481A4600F08AFEAB
:104E20002046BDE810400CF025B9062A08D108211B
:104E30000C300CF0F7F80023214605481A46EDE740
:104E400010BD00BFC16B0108E45A0108020001D087
:104E5000010001D0002808DD431E054800EBC31007
:104E6000044B984228BF002070470020704700BFC5
:104E7000300B0024B00B0024054B064A934205D0AA
:104E8000054A1068002808BF184670470020704780
:104E9000300B0024B00B0024F816002438B504466B
:104EA0000D460CF0D5F8062120460CF0D8F810B3CA
:104EB000A36843B105B12B60002504F158000CF044
:104EC000F4F8284638BD4FF0FF324FF0FF330B485F
:104ED0000CF0BCF80A4BDA6B3AB9A360DC6305B19D
:104EE0002B6006480CF0E1F8E6E704486FF0020595
:104EF0000CF0DBF8E1E76FF08505DEE7280A002417
:104F0000B016002470B50D4668B1BDE870400CF0D5
:104F10007AB9294620460CF076F918B98034B442A3
:104F2000F7D3002070BD014C014EF8E7300B002490
:104F3000B00B002470B50546084C094EB44203D3AB
:104F4000BDE87040FFF798BF294620460CF03CF9B9
:104F500008B98034F2E7204670BD00BF300B002452
:104F6000B00B002400232DE9F341054608460F4607
:104F70008DF80730FFF71EFEE8B9BDB10DF107024D
:104F80002846FFF779FE04460BE030460DF1070294
:104F900039468036FFF770FE002818BF04464645A4
:104FA000F3D3D4B1204602B0BDE8F0812C46154EB3
:104FB000DFF85480F3E725B1012128460CF040F9D1
:104FC000E1E70121FFF758FF0CF03AF90446002809
:104FD000E8D10C4E0C4FBE420BD3012128460CF0F9
:104FE00032F904460028DDD102B0BDE8F04100F0FE
:104FF00013BD012130460CF023F904460028D1D11D
:105000008036E8E7300B0024B00B0024F8B50646E4
:105010000D46114C114FBC4201D3002419E020462B
:105020000CF016F8A36804F158001BB980340CF09A
:105030003CF8F0E79A7D9207F8D51A88012AF5D155
:10504000326859689142F1D105B12C601C460CF0D0
:105050002CF82046F8BD00BF300B0024B00B002414
:105060002DE9F34106460F4690461D460BF0F0FF32
:1050700001A93046FFF712FF002833DBB468A37D97
:105080009A0703D53A6863689A420AD0B8F1020FCA
:10509000019C02D1237D042B02D0A37D9B0721D448
:1050A0003CB906F158000CF000F8204602B0BDE80B
:1050B000F081A37D01220C4843F002032280A375F6
:1050C0003B68A17D6360B5FA85F362755B0984F87E
:1050D000148063F300010423A175E218314600F047
:1050E00029FDDEE70024DCE7010004E070B504469A
:1050F0000E460BF0ADFFA2680AB9002511E0937DC2
:105100009907C3F340050CD5306851688842F4D143
:105110006FF3410321460648937504231A4400F0B7
:1051200009FD04F158000BF0C0FF284670BD00BF18
:10513000020004E0F8B506460D46154C154FBC427A
:1051400007D245B12B6833B1A34204D08034BC42AE
:10515000F8D3002419E020460BF07AFFA36804F18D
:1051600058001BB980340BF0A0FFE8E793F82C201F
:10517000D207F7D51EB1D96932689142F2D105B193
:105180002C6003F118040BF090FF2046F8BD00BF1F
:10519000300B0024B00B0024F8B54FF0FF33054668
:1051A00017460E484FF0FF320E460BF04FFF0C4BE8
:1051B0001B680BB11C6823B90848BDE8F8400BF028
:1051C00074BF5B683A463146284698471CB122684E
:1051D00023461446EFE72246FAE700BF280A0024D8
:1051E000A81600242DE9F04184B0002304460D46A2
:1051F00000AFC7E9003300294DD0324B1B688BB19B
:10520000896A95F82C6069B1062E0BD807F10A035C
:1052100032467E7218460FF073FF95F82D303860D5
:105220003E717B7109212046D5F814800BF017FFE1
:105230000346A0B30D2120460BF011FF38B94FF003
:10524000FF324FF0FF3304F16C000BF0FFFE2046FD
:1052500029460BF0D0FE4368204698470D210646AC
:1052600020460BF0FCFE18B904F16C000BF01DFF9A
:10527000002E02DA28460CF084FCB8F1000F03D0AF
:10528000314640460BF0BCFE3B6823B132463946FE
:105290002046FFF781FF1037BD46BDE8F0816E461E
:1052A00088B06A460849C2E90514032142F8101F74
:1052B0004FF4C4510548FCF739FEB5466FF072064D
:1052C000D8E700BFA8160024E36B0108E45A0108E0
:1052D0002DE9F0410C4600AF4E69092105460BF05F
:1052E000BEFEB0B9E84688B06A461E4BC2E9053535
:1052F000032342F8103F00234FF4C4511A48FCF72F
:1053000015FEC54606BBA36A23BB0220BD46BDE809
:10531000F081042128460BF0A2FE0028E2D10121F1
:1053200028460BF09CFE48B9236A3BB9A3691A686A
:10533000126922621B681B7D84F8243028462146AE
:105340000BF0B7FF0020E1E76FF0720130460BF081
:1053500057FED8E76FF0720204F128012846FFF7E4
:105360001BFFD2E7E36B0108E45A0108064B9842A1
:1053700006D3064A904203D2C01AC01101307047CA
:105380004FF0FF30704700BF300B0024B00B0024FB
:1053900038B505460BF05CFE002128460BF05FFE99
:1053A000F0B928460BF027FE044630B1846824B1DA
:1053B00001212846A047041E0CDB002128680BF0C1
:1053C00065FE0023084829461A4600F0B3FB28462C
:1053D000FFF7F0FC05F158000BF067FE204638BDE2
:1053E0006FF07704F6E700BF040001D0074A08B564
:1053F00003460BF000FE824206D11B689B68987E34
:10540000431E5842584108BD0020FCE7CC0B002445
:1054100070B50546B8B10D4C0D4EB44202D36FF0D5
:10542000010070BD2846FBF7DBFB2946024604F16C
:1054300048000FF0B2FE20B92046BDE87040FFF7EB
:1054400095BF8034E9E76FF01500EAE7300B0024E0
:10545000B00B00242DE9F0475B4C86B05B4D4FF05C
:10546000FF32A046DFF868915A4E4FF0FF335A489A
:1054700002AF0BF0EBFD0CF070FEAC4215D3574BB6
:10548000574AA3EB0803DB09954238BF0023002BE2
:105490007FD1544A01214F480AF0F9FF4E480BF0E2
:1054A00004FE1037BD46BDE8F08720680368D3F8D6
:1054B00008A0BAF1000F03D0DAF80030002B4CD16D
:1054C000EA4688B002AA0323C2E9059442F8103FD5
:1054D00000234FF4C2513046FCF728FDD546002387
:1054E0002046C4E9123384F850303B73C7E90133D6
:1054F000FFF77CFF002840D03B4A1368591C11601D
:105500003A4A0821381D09F051FE3B7943B9384A1F
:10551000381D1368591C11600821364A09F046FEEF
:10552000391D20460BF0FDFE011E14DA2046EA4626
:10553000FFF71CFF8AB002AA2F4BC2E905300523F2
:10554000C2E9074142F8103F00234FF42251304690
:10555000FCF7ECFCD54680348FE706210BF096FD76
:1055600004F158000FF0DBF804F16C000FF0D7F8ED
:10557000DAF8003020469847B1E7204B20460BF080
:105580003AFD8342C1D11E4A1368591C11601D4A5D
:10559000B7E7012B0BD01C4A0221009301230D48D1
:1055A0000AF088FF194A02210A480AF070FF184BD6
:1055B00040221849184883F838200FF032FA174B68
:1055C0000022C3E9002269E7300B0024B00B00245D
:1055D000F46B0108E45A0108280A00242F0C002467
:1055E000B10A0024586C0108A4160024126C0108AA
:1055F0009C1600241F6C0108256C0108CC0B0024AC
:10560000A0160024196C0108846C0108C16C010803
:10561000B01600240D4D0008D0100024F016002410
:1056200038B5074C074DAC4200D338BD03212046A6
:105630000BF015FD10B92046FFF7AAFE8034F2E703
:10564000300B0024B00B00242DE9F04F022889B064
:105650004FF0000483460E460292CDE9064460D125
:105660000B6804913BB94A6852B94C894FF6FF73F5
:10567000E11A4C424C4106A800220146134608E0BC
:105680001C46F8E70D78013301350D70DDB2082DA9
:1056900003D036F81350002DF4D001320131082A1E
:1056A000ECD14FF0FF374FF0010A002310F8012B27
:1056B000524588BF5FB203F1010388BF9246DBB257
:1056C000082BF3D1BAF1010F99464FF03A024FF08F
:1056D000000308BF4FF0FF37CDE9002302980022F6
:1056E00000252B46B9F1040F5ED10199C95C034630
:1056F00041BB302103F8021B009941701846013567
:10570000EDB24D452B46EDDB029B98420BD0BBF131
:10571000010F4FF0000340F09C8000F8013C02981C
:1057200002E0012803D0002009B0BDE8F08F2E234D
:105730004FF004094FF0FF3782462646019100934F
:105740000494CBE74FF0000C4FF00908CDF814C0DB
:10575000DFF804C10391B1FBFCFE0CFB1E11DDF868
:1057600014E0C64503DCDDF80CE0E64509D3DDF8BE
:105770000CE0CDF81480BEFBFCFE0EF1300E03F8F9
:1057800001EB08F1FF384FF00A0EB8F1FF3FBCFB08
:10579000FEFCDFD14FF0000119701B1A50FA83F0A4
:1057A000009B00F8013BAAE774B1052D0CD906F166
:1057B0000C034FF004094FF0010B01933A2300F85A
:1057C000013B2E2300938BE79F420DD102B915B9FF
:1057D0003A2300F8013B3A23002200F8013B0AF18A
:1057E000FF332B44DDB28AE712B13A2300F8013BC4
:1057F000049B33F8152052BA12F47F4FC2F30723EB
:105800005FFA82F816D00F2BD9B20AD90023612291
:105810000BF09FFD0123612241460BF09AFD01220E
:105820006DE7092B04D83031C9B200F8011BF1E74C
:105830005731F9E7B8F10F0FEDD8B8F1090F94BF60
:1058400008F1300808F157085FFA88F800F8018B72
:10585000E5E7037063E700BF00CA9A3B084B10B44A
:105860001A6801321A600323064C92FBF3F303EB30
:105870004303D21A282303FB024210BCFFF7E4BE05
:10588000FC160024EC1E002401282DE9F7430C46E9
:10589000164626D10846FBF7A3F923462044984232
:1058A00012D135460023033645F8013920460A2235
:1058B00001A909F0A7FC019C05F8010FAE4204F113
:1058C0000104F3D1002009E013F8012BA2F130010B
:1058D0000929E4D92E2AE2D06FF0150003B0BDE803
:1058E000F0830228F8D12E2120460FF049FC2378BE
:1058F00000280CBF082706273A2B08BF0134204692
:10590000FBF76EF900224349824223DB0025A846BB
:105910002378002BE0D03A2B41D0102200212046E2
:1059200009F070FC814610220021C9F307292046A6
:1059300009F068FC49EA002926F815903A2120462A
:105940000FF01EFCD8B1441C0135AF42E0DC062F3D
:10595000B8D13EE0A35CA3F13005092D09D9462B4F
:1059600009D82D2BB8D92E3BDBB221FA03F3DB0784
:10597000B2D50132C8E7613B052BFAD9ACE77B1EF3
:10598000AB42A9DC0135BD42A6DB062F9AD1A3E7C5
:1059900006EB450306F8158083F801800135BD420A
:1059A000F6DB3A2120460FF026FCA04228D1062F34
:1059B0000ED06378002B85D07D1E013010F8013D9C
:1059C0003A2B01D1013D87D38442F7D10134BBE7A3
:1059D00001340B3600252378002B3FF47DAF0021E6
:1059E0000A22204609F00EFC2E2106F8010F20465F
:1059F0000FF0C6FB48B10135441C042DEBD161E723
:105A0000062F08BF00F1FF30D6E7032D7FF464AF07
:105A100058E700BF0110F80100487047F05C01082A
:105A200000487047EC5C01082DE9F347DFF8B890B7
:105A3000DFF8B8804FF0FF324FF0FF336946484639
:105A400008F04AFA05460028F4D1294E4FF0FF32FB
:105A50004FF0FF33404608F099FA346814B12768D4
:105A6000AA462CB940460BF0ADFD08F0ADFFE1E7CA
:105A70000099A06881EA000381EA0002C3F3017380
:105A8000C2F30A4213431DD18BB22BB183B21BB1B7
:105A900001EA00039BB2ABB100016368019A1CD517
:105AA000986908B190420DD1A1609A61226875B9D8
:105AB000736832609C4200D172606068C4F800A0D4
:105AC00008F04EFB6FB13B683C461F46C9E72A60B1
:105AD00073689C4208BF7560EFE7204625469847EB
:105AE000F0E73B46F0E700BF8C0A0024640A00247C
:105AF0000817002410B504464FF0FF324FF0FF3373
:105B0000094808F043FA094B1A6822605A681C6079
:105B100002B95C60064AA368116803480B4313602E
:105B2000BDE810400BF04EBD640A002408170024A5
:105B30001017002438B5184B0D46020F04461B6899
:105B4000010C22EA137221EA134120EA030302F056
:105B50000302C1F30A019BB20A431A431AD14FF060
:105B6000FF324FF0FF330D4808F010FA0C49C1E93D
:105B70000045642200230B4808F058F928B10A4A6E
:105B80002346022109480AF08BFC0448BDE838404E
:105B90000BF018BD38BD00BF10170024780A002490
:105BA000001700248C0A0024366D0108F45A0108FD
:105BB00010B588B0002200230C4C0D492046CDE9D9
:105BC000062300234FF0FF32CDE90133CDE9032353
:105BD00000934FF44872074B08F0B2F8064920468C
:105BE00008B0BDE810400EF07FBD00BF00110024DA
:105BF000C0220024295A0008BA6D0108F0B5204CD3
:105C000000259DF81460B4F88670FF0722D5B4F81B
:105C1000847087421ED1678C8F421BD11788012F59
:105C200018D1676AB7B1B4F820C0BCF1010F11D127
:105C30003F683FB916B194F882705FB9ABB96FF0A5
:105C400010000CE0D2F804C0BCF1000F11D13EB935
:105C5000002BF4D001358C34062DD4D10020F0BDBA
:105C600094F88270002FF3D0F4E75768002FF1D139
:105C7000E5E7BC45EED1002EE1D094F88270F5E75F
:105C80002C170024F7B504460D460A4F0026FEF7F0
:105C9000B5FA40EA070300962A465BBA94F88400F6
:105CA00099B20023FFF7AAFF1130F0D0084603B0E5
:105CB000F0BD00BF0080FFFF2DE9F347294C0E46E1
:105CC000174698460025A246B4F88630DB0721D552
:105CD000236B98421ED18C234FF0FF325D434FF06F
:105CE000FF3305F10C040AEB0509544420460BF080
:105CF00073FCB069FFF73AFB89F88800C6F8149086
:105D0000D9F83430C3B920460BF068FC022002B049
:105D1000BDE8F08701358C34062DD5D14FF0FF3228
