:020000040800F2
:1000000000300024A91F000875990008951F0008FA
:10001000951F0008951F0008951F000800000000AC
:100020000000000000000000000000009520000813
:10003000951F0008000000003120000895680008A6
:1000400059220008592200085922000859220008A4
:100050005922000859220008592200085922000894
:100060005922000859220008592200085922000884
:100070005922000859220008592200085922000874
:1002CC0080F0004002E000BF81F0004142001FBFFF
:1002DC005FEA410392EA030F7FEA226C7FEA236C08
:1002EC006AD04FEA1262D2EB1363C1BFD2184140FD
:1002FC0048404140B8BF5B42192B88BF704710F093
:10030C00004F40F4000020F07F4018BF404211F035
:10031C00004F41F4000121F07F4118BF494292EA9D
:10032C00030F3FD0A2F1010241FA03FC10EB0C00C9
:10033C00C3F1200301FA03F100F0004302D5494256
:10034C0060EB4000B0F5000F13D3B0F1807F06D303
:10035C0040084FEA310102F10102FE2A51D2B1F1FB
:10036C00004F40EBC25008BF20F0010040EA0300F0
:10037C007047490040EB0000013A28BFB0F5000F70
:10038C00EDD2B0FA80FCACF1080CB2EB0C0200FA26
:10039C000CF0AABF00EBC25052421843BCBFD04075
:1003AC001843704792F0000F81F4000106BF80F4EF
:1003BC0000000132013BB5E74FEA41037FEA226CB2
:1003CC0018BF7FEA236C21D092EA030F04D092F07D
:1003DC00000F08BF0846704790EA010F1CBF0020B1
:1003EC00704712F07F4F04D1400028BF40F000400E
:1003FC00704712F100723CBF00F50000704700F02E
:10040C00004343F0FE4040F4000070477FEA226254
:10041C0016BF08467FEA23630146420206BF5FEA25
:10042C00412390EA010F40F4800070474FF0000325
:10043C0004E000BF10F0004348BF40425FEA000CEC
:10044C0008BF704743F0964301464FF000001CE094
:10045C0050EA010208BF70474FF000030AE000BFEA
:10046C0050EA010208BF704711F0004302D5404228
:10047C0061EB41015FEA010C02BF8446014600209A
:10048C0043F0B64308BFA3F18053A3F50003BCFAB5
:10049C008CF2083AA3EBC25310DB01FA02FC634462
:1004AC0000FA02FCC2F12002BCF1004F20FA02F269
:1004BC0043EB020008BF20F00100704702F120025C
:1004CC0001FA02FCC2F1200250EA4C0021FA02F2BD
:1004DC0043EB020008BF20EADC7070474FF0FF0CC2
:1004EC001CEAD0521EBF1CEAD15392EA0C0F93EABD
:1004FC000C0F6FD01A4480EA010C400218BF5FEA5F
:10050C0041211ED04FF0006343EA501043EA5111D1
:10051C00A0FB01310CF00040B1F5000F3EBF4900CB
:10052C0041EAD3715B0040EA010062F17F02FD2ACF
:10053C001DD8B3F1004F40EBC25008BF20F00100B2
:10054C00704790F0000F0CF0004C08BF49024CEAC9
:10055C00502040EA51207F3AC2BFD2F1FF0340EA5B
:10056C00C250704740F400004FF00003013A5DDCCC
:10057C0012F1190FDCBF00F000407047C2F100020D
:10058C00410021FA02F1C2F1200200FA02FC5FEAFA
:10059C00310040F1000053EA4C0308BF20EADC7044
:1005AC00704792F0000F00F0004C02BF400010F4B6
:1005BC00000F013AF9D040EA0C0093F0000F01F063
:1005CC00004C02BF490011F4000F013BF9D041EA85
:1005DC000C018FE70CEAD15392EA0C0F18BF93EA87
:1005EC000C0F0AD030F0004C18BF31F0004CD8D1B1
:1005FC0080EA010000F00040704790F0000F17BF38
:10060C0090F0004F084691F0000F91F0004F14D07D
:10061C0092EA0C0F01D142020FD193EA0C0F03D1D5
:10062C004B0218BF084608D180EA010000F00040D8
:10063C0040F0FE4040F40000704740F0FE4040F4B3
:10064C00400070474FF0FF0C1CEAD0521EBF1CEA52
:10065C00D15392EA0C0F93EA0C0F69D0A2EB030270
:10066C0080EA010C49024FEA402037D04FF080530A
:10067C0043EA111143EA10130CF000408B4238BFCF
:10068C005B0042F17D024FF4000C8B4224BF5B1ADD
:10069C0040EA0C00B3EB510F24BFA3EB510340EA2B
:1006AC005C00B3EB910F24BFA3EB910340EA9C00D9
:1006BC00B3EBD10F24BFA3EBD10340EADC001B0149
:1006CC0018BF5FEA1C1CE0D1FD2A3FF650AF8B42ED
:1006DC0040EBC25008BF20F0010070470CF0004CFA
:1006EC004CEA50207F32C2BFD2F1FF0340EAC25025
:1006FC00704740F400004FF00003013A37E792F0E6
:10070C00000F00F0004C02BF400010F4000F013A43
:10071C00F9D040EA0C0093F0000F01F0004C02BF3E
:10072C00490011F4000F013BF9D041EA0C0195E7A7
:10073C000CEAD15392EA0C0F08D142027FF47DAF40
:10074C0093EA0C0F7FF470AF084676E793EA0C0F30
:10075C0004D14B023FF44CAF08466EE730F0004C2E
:10076C0018BF31F0004CCAD130F000427FF45CAFBE
:10077C0031F000437FF43CAF5FE700BF42000ED284
:10078C00B2F1FE4F0BD34FF09E03B3EB126209D4C0
:10079C004FEA002343F0004323FA02F070474FF076
:1007AC000000704712F1610F01D1420202D14FF0EB
:1007BC00FF3070474FF00000704700BF7BB972B933
:1007CC000029BEBF00204FF0004106E008BF002802
:1007DC001CBF6FF000414FF0FF3000F057B8ADF187
:1007EC00080C6DE904CE002909DB002B1ADB00F0A4
:1007FC004FF8DDF804E0DDE9022304B07047404215
:10080C0061EB4101002B1BDB00F042F8DDF804E04A
:10081C00DDE9022304B0404261EB4101524263EB3B
:10082C0043037047524263EB430300F031F8DDF8A9
:10083C0004E0DDE9022304B0404261EB4101704762
:10084C00524263EB430300F023F8DDF804E0DDE9EA
:10085C00022304B0524263EB4303704753B94AB9C5
:10086C00002908BF00281CBF4FF0FF314FF0FF30AC
:10087C0000F00CB8ADF1080C6DE904CE00F008F8EE
:10088C00DDF804E0DDE9022304B07047704700BFD7
:10089C002DE9F04786468C460846089E1546744658
:1008AC001946002B40F0C2808542B2FA82F245D93B
:1008BC004AB1C2F1200300FA02FC2EFA03F3954070
:1008CC0043EA0C0C94404FEA154EA8B2BCFBFEF860
:1008DC00230C0EFB18CC08FB00F943EA0C4399459A
:1008EC0028D9EB1808F1FF3704D2994502D9A8F1A1
:1008FC0002072B44A3EB0903A4B2B3FBFEFC0EFBD3
:10090C001C330CFB00F044EA0344A04214D92C190C
:10091C000CF1FF3304D2A04202D9ACF102032C44F7
:10092C00241A43EA07401EB1D4400023346073609C
:10093C00BDE8F0874746DDE76346F1E792BB431B12
:10094C0001214FEA154EAFB2B3FBFEFC200C0EFB9F
:10095C001C330CFB07F840EA0343984562D9EB18AB
:10096C000CF1FF3004D2984502D9ACF102002B44B3
:10097C00A3EB0803A4B2B3FBFEFC0EFB1C330CFB75
:10098C0007F744EA0344A7424ED92C190CF1FF3364
:10099C0004D2A74202D9ACF102032C44E41B43EA73
:1009AC000040C0E7C2F1200320FA03F195409040CB
:1009BC002EFA03F303434FEA154EAFB2B1FBFEFC24
:1009CC000EFB1C10190C0CFB07F841EA0041884582
:1009DC0004FA02F422D969180CF1FF3004D28845CC
:1009EC0002D9ACF102002944A1EB08019BB2B1FB86
:1009FC00FEFC0EFB1C110CFB07F743EA01439F4264
:100A0C000ED9EB180CF1FF3104D29F4202D9ACF194
:100A1C0002012B44DB1B41EA004192E76046E3E70D
:100A2C006146F7E76046A3E76346B7E7834206D91A
:100A3C0016B9002108467BE7C6E900E0F9E7B3FAEE
:100A4C0083F78FB9834201D3724508D8BEEB0204F9
:100A5C0060EB030301209C461EB9002168E7384671
:100A6C00FAE7C6E9004CF8E7C7F1200CBB4022FAC4
:100A7C000CF41C432EFA0CF120FA0CF3B840014391
:100A8C004FEA14490EFA07F5B3FBF9F81FFA84FE86
:100A9C0009FB18300B0C08FB0EFA43EA00439A458D
:100AAC0002FA07F240D9E31808F1FF3004D29A4554
:100ABC0002D9A8F102002344A3EB0A0389B2B3FBC9
:100ACC00F9F809FB183308FB0EFE41EA03418E4589
:100ADC002CD9611808F1FF3304D28E4502D9A8F144
:100AEC000203214443EA0040A0FB0298A1EB0E0153
:100AFC004145CE46434602D306D14D4504D2B9EB0F
:100B0C00020E68EB04030138002EA6D0B5EB0E02E2
:100B1C0061EB030101FA0CFC22FA07F34CEA030324
:100B2C00F940C6E9003198E74046C5E74346D9E7A6
:100B3C00034613F8012B002AFBD1181A0138704711
:100B4C00154B10B599428AB0059218D1906805A939
:100B5C00043002F04FFC014698B106AC102304316E
:100B6C000120224602F06AFE0C4B03220C49029330
:100B7C00002303941846CDE9003308F0F2FA0AB0CA
:100B8C0010BD084B012206490090CDE90103034634
:100B9C0008F0E7FAF3E700BF010004E0AEE3000859
:100BAC002CDE0008BDE300082DE9F047404B8AB06D
:100BBC0003224049029300231846CDE9003308F084
:100BCC00D0FA00F0B9F83C483B4E0CF06EF870B916
:100BDC003A4B01223749029300231846CDE90033E2
:100BEC0008F0BFFA4FF0FF300AB0BDE8F08730468E
:100BFC000CF05BF80028EBD0314808F0C1FA314812
:100C0C0008F0BEFA00F06EF8044638B92E4B0122FB
:100C1C0028490090CDE901030346E1E702F038FBD7
:100C2C002A4B05462A4F089307A82A4BDFF8A880C1
:100C3C00DFF8A890099302F079FF28460AF074FABD
:100C4C00A3683A212046DB6898478246A36805AA28
:100C5C000D2120461B69984705463946404608F049
:100C6C0002FB5AEA050517D11D48DDE9051208F00B
:100C7C00FAFA0599124A134B002918BF13460121A1
:100C8C001B799940B3680C485B699847002142F284
:100C9C00107007F0F5FDD3E7002301220549184633
:100CAC00CDF80890CDE9003308F05BFAE1E700BF1E
:100CBC00D8E300082CDE000830D80008E9E300086F
:100CCC000CDF000804DF0008FFE300084D0B0008F0
:100CDC0080130024010004E01CE4000843E4000835
:100CEC0034E4000838B5084C20460BF0DEFF2168D0
:100CFC00054620B9054808F0B6FA284638BD044820
:100D0C0008F0B1FA2046F9E7D0D8000869E40008E9
:100D1C00BDE400087FB50BAB059303930322054B91
:100D2C00029300231846CDE9003300F099FB07B07D
:100D3C005DF804FBE5E4000810B586B0104C02F039
:100D4C00A7FA036820461A6951791378049111792E
:100D5C000391D178029191780191122152780092ED
:100D6C00084A07F089FF084B032208490293002325
:100D7C0003941846CDE90033FFF7CCFF06B010BD45
:100D8C0080130024FCE40008E5E40008C4DE00083D
:100D9C002DE9F04F91B0840705460E46009302F002
:100DAC000403DDF868900293C2F3C203039203F1CB
:100DBC000103059340F0BA81041D30B1072909D80D
:100DCC006FF01B0011B0BDE8F08F01F00706341D69
:100DDC00C6F10806009B4FF000084FF0040A591E9C
:100DEC004FF0FF334746C34601935346CDF810806E
:100DFC000DB1009A22600598002800F3E88098480D
:100E0C00009A824203D397488242C0F0E080039A52
:100E1C00A4EB050E92074FEA9E0000F103810F2F01
:100E2C0000F2B180002D00F0058107F140020DEBBE
:100E3C00020C019A0CF8200C0CF8102C04980130C0
:100E4C000490E7E07A285DD84B280ED8472859D86B
:100E5C0029282DD8252852D054D820287AD02338A8
:100E6C00D0F1000B4BEB000B74E04C382E2849D81A
:100E7C00DFE800F070484848484848484848484827
:100E8C004B484848484848484859484B4B59595989
:100E9C00704B6D487048184B184848827F4B484837
:100EAC004B487F0000204FF0000B4FF0040A38E055
:100EBC002A380122C0B202FA00F010EA0E0F49D112
:100ECC0010F0625C2FD110EA020B43D06046013C5B
:100EDC005444B4FBFAF40AFB04F4002D61D0A3EBE8
:100EEC00050CA4446645FFF46BAF002868D1042BB5
:100EFC0047D159F8043B2360043404232AE0019AB7
:100F0C00013A01924FF0000B24E011F8010C6C280F
:100F1C0034D111F8023C00206C2B8346C5D14FF024
:100F2C00080A5346D3E709F10709073429F00709E2
:100F3C0024F00704F9E802AB35B106982044B0421E
:100F4C003FF63EAFC4E900AB08344FF0000B4FF056
:100F5C00080A534611F8010F002878D0BBF1000F96
:100F6C007FF470AF2528F5D1019B4FF0010B0133B5
:100F7C0001934FF0040AECE7584694E700208346AF
:100F8C00A5E7082B02D06FF015001BE709F1070944
:100F9C0029F00709F9E80223C4E9002308340823DF
:100FAC00D8E768B9042B02D109F10409A4E7082B8E
:100FBC00E9D109F1070929F0070909F10809EDE759
:100FCC00059A013A059259F8042B009210E7039AFE
:100FDC00900720D5A4EB050E4FF0010C4FEA9E00B4
:100FEC00BEF5007FCFD20F2FCDD8F5B107F140025F
:100FFC00C0B20DEB020E019A0EF8200C0EF8102C5C
:10100C00BCF1000F3FF41AAF60F07F0008F101084B
:10101C000EF8200C0137C5F1080204344FF6DA7EC5
:10102C00069297E74FF0000CDAE7BCF1000F01D005
:10103C000136EFE7029802360028EBD10098CDE993
:10104C000631FFF775FD0644DDE90631E2E7631B67
:10105C00B3F5806F97D23DB9A6F10804E018B1E65C
:10106C0048D60008A8F600089B08029A28602B7046
:10107C009DF81030C2B1EB7085F80280B8F1000F0A
:10108C0005D008A80022C5F1010C97420ED1C5F17C
:10109C0001030DF120094FF0000A0DF1300B019303
:1010AC00574512D1601B8DE66B70E5E710F8013BDC
:1010BC00190608D504EB0C0E03F07F037645FFF4FC
:1010CC007FAE04F8013B0132DFE7B8F1000F03D02B
:1010DC0099F90020002A17DB029BD3B11AF80B20D8
:1010EC0004F8012B0022019B981820448642FFF43F
:1010FC0067AE99F80000009904F8010B20460392A2
:10110C000CF03CFA039A14440AF1010A09F10109A2
:10111C00C6E799F8002055F822300093029B0098FE
:10112C0045F82230FFF704FD421CDCE76FF00D00A0
:10113C0048E600BF014B1860704700BF0008002450
:10114C0080B505460E461746984607F0B1FBDFF80A
:10115C00209003460CF068FA0446424649F80030E9
:10116C0039463046A84754F8090000F02DFF00BF5F
:10117C0008000000324B70B55A6912F4003211D1DC
:10118C00BFF34F8FBFF36F8FC3F85022BFF34F8F56
:10119C00BFF36F8F5A6942F400325A61BFF34F8F1D
:1011AC00BFF36F8F264A5369D90327D4536913F4BD
:1011BC00803323D1C2F88430BFF34F8FD2F8803004
:1011CC0043F6E074C3F3C900C3F34E335B0103EA87
:1011DC000406014646EA81750139C2F86052F9D21B
:1011EC00203B13F1200FF2D1BFF34F8F536943F41F
:1011FC0080335361BFF34F8FBFF36F8F114B124A84
:10120C001A60124BDA6822F0070242F00202DA602E
:10121C009A6942F440429A619A699204FCD50C4B4B
:10122C001A6841F20303B3EB124F06D1094AD2F804
:10123C00083143F00103C2F80831002070BD00BF33
:10124C0000ED00E0000900240090D0030048025893
:10125C000010005C008000512DE9F84F81462E48AB
:10126C000F4608F0D6FA064670B92C4C0546DFF846
:10127C00B0A04FF0010BA046544507D3B9F1000FB5
:10128C0002D04FF0010AE5B9BDE8F88F237B73B1AA
:10129C002368DB680BB12046984723681B6943B968
:1012AC00636804222046196800F0C6F80136103431
:1012BC00E2E7204698470028F2D00BFA06F31D43CC
:1012CC00F4E7A94695FAA5F4B4FA84F40AFA04F3FF
:1012DC00260108EB04146FEA030B25EA0305237BB4
:1012EC0063B158F806301B698BB94644042220467A
:1012FC0009EA0B097368196800F09EF8002DE1D11A
:10130C001FB16420002107F0BBFA4D46BBE7204615
:10131C0098470028F2D1E8E7D00E0024ECDE000854
:10132C00FCDE0008014B53F82000704758DF000822
:10133C0008B5034608462BB1044A136000F082FA44
:10134C00002008BD6FF01500FBE700BF0408002467
:10135C000023054A4FF47A7104481370044A136051
:10136C00044A1360FFF7E4BF921300240F9800089F
:10137C00C80E0024CC0E002470B50B4D297841B951
:10138C000A4C01200A4EFFF767FFB44202D3012337
:10139C002B7070BD63685B791BB1236820469B681A
:1013AC0098471034F1E700BF92130024ECDE0008DC
:1013BC00FCDE000810B50446084808F02AFA5CB1B7
:1013CC00074BBFF35B8F53E8001F013943E8001252
:1013DC00002AF8D1BFF35B8F10BD00BFC80E0024EC
:1013EC00CC0E00240A4B70B505460A4C0A4E1B68FD
:1013FC009847A860B44200D370BD63685B7923B191
:10140C002368294620461B6898471034F2E700BF32
:10141C0004080024ECDE0008FCDE0008044A054B3E
:10142C009B1AB1EBD30F34BF52F831000020704738
:10143C00FCDD0008ECDE0008084BC31A1B1110B4CD
:10144C0001334468237143689A710122436819601F
:10145C0043685A7110BC08F0FEB900BFECDE0008FE
:10146C002DE9F04F85B004460E46934602AF9846E0
:10147C003D6BD7E90EA9BAF1000F33D0C7F8049031
:10148C001021CDF8009053467A6B0020FFF780FCBA
:10149C00014604F007040BF0070B134AE40002EAC0
:1014AC00412244EA8B14144344EA055417350D4485
:1014BC0025F00705ADEB050D02ADBAF1000F07D015
:1014CC00CDF8009053467A6B05F11000FFF760FCE5
:1014DC00434622463146284608F0C0F90C37BD4633
:1014EC00BDE8F08F5146D4E700FE0F000EB403B5F3
:1014FC0003AB0146054853F8042B019301F05CF84B
:10150C0002B05DF804EB03B0704700BF9B98000875
:10151C00CA0605D48B064CBF02490349FFF7E6BF48
:10152C00704700BF78E5000877E500082DE9F04F1B
:10153C0089B09A4604460D469DF84CB0179E06920B
:10154C00DDE914730593169B0493BBF1000F00F0B7
:10155C00858006F0080306F00209079308F07CF971
:10156C000246002849D086492046FFF7BFFF804637
:10157C00B9F1000F08D016F0440F40D12A4681492A
:10158C002046FFF7B3FF804406F0010353B17E4BB6
:10159C0020467E4953F82B207D4B002A08BF1A4663
:1015AC00FFF7A4FF06F00803002B54D0794B20461C
:1015BC00794953F82B20FFF799FF0546069B2BB171
:1015CC001A4676492046FFF791FF0544BAF1000F01
:1015DC0005D0524672492046FFF788FF0544454422
:1015EC00002F49D1049B002B4FD1F30700F1C18090
:1015FC0031462046FFF78CFFB5E08046B8E7694BD3
:10160C0018680028BFD0684B4FF47A794FF46161A9
:10161C004FF03C0C1B68B5FBF3F5B5FBF0F300FB8E
:10162C00135509FB05F5B3FBF1F2B5FBF0FE01FB1D
:10163C00123100FB1E55B1FBFCF309FB05F50CFB4D
:10164C001311B5FBF0F5009120465849CDE901E5A1
:10165C00FFF74CFF97E706F00805AFE7BAF1010F6B
:10166C0006D1002F65D1049B002B7CD000250CE00B
:10167C00002FF8D04E485DE04E483B4622464E497E
:10168C0007F0BEFD049B002B69D0DFF83081DFF83A
:10169C003091049F4FF0000A31462046102F28BF8E
:1016AC001027FFF735FF554546DC059B4FF0010A27
:1016BC00494620461A78FFF719FF1AF0070F03D195
:1016CC0041462046FFF712FF57453CD9059B49463A
:1016DC00204613F80A20FFF709FF0AF1010ABAF1B4
:1016EC00100FEAD14FF0000A36492046FFF7FEFEF4
:1016FC005246059B20469A5C334B995C11F0970F30
:10170C00324908BF2E22FFF7F1FE0AF1010ABAF1A5
:10171C00100F1DD01AF0070F03D141462046FFF7DA
:10172C00E5FE57455246E4D841462046FFF7DEFE1B
:10173C00EBE720485D46A0E7414620460AF1010A46
:10174C00FFF7D4FEAFE722492046FFF7CFFEC4E7F0
:10175C00059B3B440593049BDB1B049399D1BBF184
:10176C00000F7FF442AF204609B0BDE8F04F08F0FF
:10177C00B7B8074A20460549FFF7B8FE38E700BF5F
:10178C007FE5000883E5000868DF0008F9E400083D
:10179C007AE500087CDF0008A8E50008AEE5000843
:1017AC00B2E50008D80E0024D40E00248CE5000805
:1017BC00B79800089B980008C5250008BFE50008ED
:1017CC00B7E50008C1E5000896F50008C3E5000878
:1017DC00BDE500082DE9F0410F8886B04B68054641
:1017EC000C4690468E68C7F382175BB1144A9B1A5D
:1017FC0043F3CF01002921DB2078C0F3C200FFF7AF
:10180C000DFE03462146608851F8102BC0F30B10D7
:10181C000197C2F34A22002A01EB02044FF00002A6
:10182C0008BF00210092CDE90408CDE90214284636
:10183C003146FFF77BFE06B0BDE8F0810023E1E7FF
:10184C00FCDD000800210123064A904206D8064A16
:10185C0001B901231360054B186070474008012142
:10186C005B00F2E740420F00D40E0024D80E002497
:10187C00F8B50D4604464618054FB44201D128462A
:10188C00F8BD14F8011BBB6801485B689847F4E786
:10189C0080D80008014B036001207047C4DF0008AA
:1018AC0070B5064686B00D46002938D08B680024EA
:1018BC000122059320464B6804930B681B49039344
:1018CC001B4BCDE900440293234608F039F86B69B1
:1018DC0001221649059320462B690493EB6800946A
:1018EC000393144BCDE90143234608F029F8EB6927
:1018FC0001220E49039320460F4B0094CDE901437E
:10190C00234608F01DF8AB690122084903932046D1
:10191C000A4B0094CDE90143234608F011F82946FF
:10192C00304606B0BDE8704005F0E6BECCDE0008DF
:10193C0010E600083FE600086EE600087DE60008A9
:10194C0030BFFFF7FDBF00BF114B124A2DE9F0412C
:10195C00D518DFF844800746013DB5FBF3F55D4330
:10196C000E4B08EB0304013CB4FBF3F403FB0454EF
:10197C000E1B0B4930460BF001FE7019083E424617
:10198C0000210BF009FE04F108007E67BDE8F08130
:10199C000100000000000000040000000400000032
:1019AC00FCDE0008044B99685869884203D003494F
:1019BC004FF080520A6070474813002404ED00E099
:1019CC00F0B5444B85B00024074602930E462346DF
:1019DC00012241492046CDE9004407F0CCFF3F4BA2
:1019EC009B6ADB0465D53E4B204601223A490094A4
:1019FC00CDE90143234607F0BEFF1720374B9B6A06
:101A0C001D050AD5374B0122334902930023184692
:101A1C00CDE9003307F0AFFF1820304DAB6A9C05C1
:101A2C001FD50024304B01222B492046029323461C
:101A3C00CDE9004407F09FFFAB6BAA6A10040FD5E9
:101A4C0003930122294B204623490094CDE90143FD
:101A5C00234607F090FF1FB1AB6A23F40043AB623F
:101A6C0019201E4B9B6A59050AD5214B01221A4994
:101A7C00029300231846CDE9003307F07CFF1A20AF
:101A8C00164A936A13F4807315D01A4B012212492B
:101A9C00029300231846CDE9003307F06CFF1B209E
:101AAC000E4A936A43F47F4393620023337005B06C
:101ABC00F0BD1620A2E7926A9204F1D50E4A1846A0
:101ACC0005490093CDE90132012207F054FF1C2097
:101ADC00E6E700BFABE60008CCDE000800ED00E056
:101AEC00C1E60008D2E60008E5E60008FEE60008BC
:101AFC0013E700082EE7000846E700081FB500248E
:101B0C00374B01223749029320462346CDE9004446
:101B1C0007F031FF344B9B6A9A015ED5334B20465C
:101B2C00012230490094CDE90143234607F023FFFD
:101B3C001E202D4B9B6ADB010AD52D4B0122294916
:101B4C00029300231846CDE9003307F014FF1F2041
:101B5C00254B9B6A1C030AD5264B01222149029373
:101B6C0000231846CDE9003307F005FF21201E4B5A
:101B7C009B6A59030AD5204B01221A490293002370
:101B8C001846CDE9003307F0F6FE2220164B9B6A6F
:101B9C009A030AD5194B01221249029300231846C5
:101BAC00CDE9003307F0E7FE23200F4B9B6ADB03E4
:101BBC000AD5134B01220B49029300231846CDE999
:101BCC00003307F0D8FE2420074A936A6FEA0343D8
:101BDC006FEA1343936204B010BD1D20A9E700BF48
:101BEC0075E70008CCDE000800ED00E08DE700088A
:101BFC00A0E70008BAE70008D8E70008FDE70008EE
:101C0C0017E800082DE9F0434E4B85B000248046C0
:101C1C0002938946234616464B4901222046CDE9BC
:101C2C00004407F0A8FE494B9B6ADF0640D5484BA1
:101C3C002046009401224449CDE901432346112456
:101C4C0007F099FE414B9B6A1D070AD5414B1224A4
:101C5C0001223D49029300231846CDE9003307F0D9
:101C6C008AFE3A4DAB6A980724D500243A4B364984
:101C7C000122029320462346CDE9004407F07BFE67
:101C8C006F6BAB6A190659D5344B01222E4920468D
:101C9C0003970094CDE90143234607F06CFEB9F19C
:101CAC00000F03D0AB6A23F08003AB62132403E074
:101CBC001024C7E76FF01507244B9B6ADA070AD587
:101CCC00274B142401222049029300231846CDE906
:101CDC00003307F050FE1D4B9B6A9B060AD5214B27
:101CEC00152401221849029300231846CDE900332C
:101CFC0007F041FE154B9A6AD50602D49A6A9007F2
:101D0C000AD55B68190507D54146384600F04CFAF0
:101D1C0010B180F3098802240C4B9A6A920603D501
:101D2C005A6A22F400525A629A6A204642F0FF0222
:101D3C009A620023337005B0BDE8F0836FF015078D
:101D4C00B4E700BF42E80008CCDE000800ED00E07C
:101D5C0058E80008D2E600088BE80008A3E8000861
:101D6C00B9E8000846E70008774B2DE9F0415F68B9
:101D7C0090B004460023C7F3080683F31188BFF321
:101D8C006F8F02F07F40B0F17F4F0CD102F00C004E
:101D9C00082819D16D4A18466D490093CDE90132D6
:101DAC00012207F0E8FD00252C464FF00008F31E39
:101DBC008DF81F80092B00F2AD80DFE803F00BA13A
:101DCC00A59DABABABABABA9120746BF0C461D46F2
:101DDC000125EAE75F4B01225D495B4FCDF800809E
:101DEC00CDE901830023184607F0C5FD8DF81F804F
:101DFC00FE6A16F0020605D0574BCDF80080CDE9EF
:101E0C00018306E0FB6A002B0BDA544B0096CDE9FC
:101E1C000163002301224E49184607F0ACFD002255
:101E2C003BE0FB6A5B00FAD54D4B0122484930463A
:101E3C000096CDE90163334607F09DFD7B69A269ED
:101E4C0043F480737B61BFF34F8FBFF36F8F7B695C
:101E5C0032F8022C23F480737B61BFF34F8FBFF3F6
:101E6C006F8F4DF602739A420AD0BB6ADBB2002B1D
:101E7C0034D00DF11F0201212046FFF7C3FE3DE0D7
:101E8C0023680122324930460393364B0096CDE944
:101E9C000163334607F06FFD22689DF81F30D3B9FC
:101EAC0008AE04F120072068083454F8041C3346AB
:101EBC00BC4203C31E46F6D10F9B002D3FD0C3F38B
:101ECC00080121B96FEA53236FEA43230F9308A942
:101EDC001046FFF7E5FC10B0BDE8F081BB6A13F4C7
:101EEC007F4F05D00DF11F010120FFF769FD05E0C3
:101EFC00BB6AB3F5803F92D3FFF700FE0246CCE7F6
:101F0C000DF11F020021B7E70DF11F010020ECE7D6
:101F1C00154B72E717F4F87F144A154BA6F110060F
:101F2C0018BF13460A490122CDE90336114B02931F
:101F3C0000231846CDE9003307F01DFD6FE723F4AD
:101F4C00FF7323F00103C1E700ED00E006E9000890
:101F5C00CCDE000831E9000848E9000869E900080E
:101F6C0077E9000896E90008B2E90008EDE80008F6
:101F7C00D8E80008D6E90008024A536943F0100378
:101F8C005361704700ED00E0EFF30880EFF3098137
:101F9C0001B57246FFF7E8FE01BD00BF102080F3CB
:101FAC00118808484FF40461401880F30988EFF356
:101FBC0014800221084380F31488BFF36F8F00F064
:101FCC00B9F80000801D0024084B9B6883420BD19C
:101FDC00EFF3058343B1064B5A6842F080525A60C6
:101FEC005A6A22F400425A620BF0ABB9481300242F
:101FFC0000ED00E0094A6FF00A019368D9670849BF
:10200C0098674B6843F080534B60002383F311882F
:10201C00BFF36F8F9368D86F704700BF48130024CD
:10202C0000ED00E015498A684FF030001044EFF3E2
:10203C00098C80E8F01F102080F31288BFF36F8F9B
:10204C000F4F4FF000664A698A603E604FF074048F
:10205C00141920680B4C2060906F0023936780F359
:10206C00118804B5104600F011F9BDE8044002F1E6
:10207C00300090E8F01F8CF3098870474813002457
:10208C0004ED00E0080F00241EF0040F0CBFEFF36A
:10209C000880EFF30980816911F8021C0229FFD036
:1020AC0001B507F05DFC01BD00B2002807DB012380
:1020BC00410900F01F00024A834042F8213070476A
:1020CC0000E100E000B200280CDB4309012200F023
:1020DC001F0005492033824041F82320BFF34F8F66
:1020EC00BFF36F8F704700BF00E100E04209054B62
:1020FC0000F01F0053F82220012303FA00F01040D7
:10210C00704700BF00E100E000B2013100284FEA47
:10211C000111C9B206DB00F1604000F5614080F8A6
:10212C000013704700F00F00014B1954704700BFAB
:10213C0014ED00E00F4A08B522F07F020E4B9A60B6
:10214C00BFF34F8FBFF36F8FD3F8882022F4700248
:10215C00C3F88820EFF3148323F0040383F314886B
:10216C00BFF36F8F05F06EFB06F0BAFB00F062F860
:10217C0005F0C4FB0000000800ED00E042F8203C34
:10218C00203A009B07495360019B21F001019360A9
:10219C00029B9161D3604FF08073D3610023026581
:1021AC00836770474D110008094A0346906870B167
:1021BC0013F1160F406E05D0A0F140029A4205D8DB
:1021CC00834203D2814228BF002070470020704711
:1021DC004813002414460B4A0D4608B50A4B906070
:1021EC00426F1A6000F052F8204685F309880021EE
:1021FC0063B681F31188BFF36F8F00220023FEF7C3
:10220C009FFF00BF48130024080F0024014910222F
:10221C000A60704710ED00E072B6404080F3118800
:10222C00BFF36F8FBFF34F8F30BF62B6BFF36F8FAB
:10223C00704700BF002304481021C2180133A32BA0
:10224C0082F80013F9D1704700E100E001B5EFF31B
:10225C000580A0F110004FEAC0000449014409C9EF
:10226C009847BDE80140024908470000E4D800083F
:10227C00B1190008024B0221024A034800F090B841
:10228C000000052400000024D4DF0008426E402129
:10229C00044B403A18461A60034AC3E90112012163
:1022AC0000F088B80C0F002400000B150F281FB588
:1022BC000FD9104B01220390029300230E491846AC
:1022CC00CDE9003307F07BFB6FF0150005B05DF82E
:1022DC0004FB0A4AC2F898000B6823F01F0303435F
:1022EC0043F01003C2F89C308B6843F00103C2F832
:1022FC00A030EBE7EDE9000834DE000800ED00E06B
:10230C00F0B50E4689B01F4604460025B54212DAD8
:10231C00606838B3BFB1431E18420FD0134B012273
:10232C0013490293002303951846CDE9003307F0B7
:10233C0046FB6FF01502104609B0F0BD1F28EDD911
:10234C0021680B42EAD1236805A9059307F027FB06
:10235C00A3680343D0B20793FFF7A8FF10F1160F41
:10236C00E7D0421C01350C34D0E700BF13EA00085B
:10237C0034DE0008044B0522C3F89420BFF34F8FC2
:10238C00BFF36F8F704700BF00ED00E0BFF35F8FAE
:10239C00024B0022C3F89420704700BF00ED00E010
:1023AC0010B5034C01232278FFF7AAFF207010BD53
:1023BC0094130024094A08B500231278FFF7A0FFF4
:1023CC0010F1160F03D0064B00220F2800DD08BDBC
:1023DC00C3F898000130C3F8A020F6E7941300244A
:1023EC0000ED00E064480368102BF0B589B000F2F2
:1023FC00BF80FFF7CBFF614A5369DB031ED5002377
:10240C00C2F88430BFF34F8FD2F8803043F6E075BA
:10241C00C3F3C904C3F34E335B0103EA050721463A
:10242C0047EA81760139C2F87462F9D2203B13F184
:10243C00200FF2D1BFF34F8FBFF36F8FD0E9004164
:10244C0000224E48A24201F10C010DD14C4D04A8C2
:10245C0000244C4F2A70FFF71DFA0646A64216D1EF
:10246C000020FFF787FF32E0C0F8982051F80C3CB1
:10247C0023F01F031343013243F01003C0F89C30C8
:10248C0051F8043C43F00103C0F8A030DAE704989B
:10249C004FEA041C00EB0411CB683B40B3F5000F72
:1024AC0054D016D8B3F5001F3AD0B3F5800F42D0F4
:1024BC00B3F5801F1CD0344B012234490293002306
:1024CC001846CDE9003307F07AFA6FF0150009B021
:1024DC00F0BDB3F1807F42D0B3F1007FEBD150F867
:1024EC000C30886807F05BFA4A6840F4802009E0F9
:1024FC0050F80C30886807F052FA40F088504A685F
:10250C0040F43020079005A92878CDE90523FFF782
:10251C00CDFE0028D9DB2B78013401332B709DE7DD
:10252C0050F80C30886807F03AFA40F088504A6846
:10253C0040F40020E6E750F80C30886807F02FFADA
:10254C0040F0E0604A6840F40030DBE750F80C30B3
:10255C00886807F024FA4A6840F08270D2E750F895
:10256C000C30886807F01BFA4A6840F08870C9E79D
:10257C004FF0FF30ABE700BF14DF000800ED00E0C8
:10258C00941300240000F0FF36EA000834DE000843
:10259C0008B5024B1B689847002008BD180F002493
:1025AC00034B044A1860937843F00203937070470E
:1025BC00180F002410080024F0B587B007460E460B
:1025CC0014460021102268461D460AF0E5FF02233E
:1025DC002A4621468DF802306846044BCDE9047634
:1025EC00019306F075FB07B0F0BD00BFEB99000836
:1025FC000649074821F00701C1F1105208B502F550
:10260C00A02207F096F8002008BD00BF1F6B002425
:10261C001C0F002407B50848042283680DEB020147
:10262C001B689847002802DA04F0F4F9019001982D
:10263C0003B05DF804FB00BF58D8000870B54169C1
:10264C000446867A0A4D59B1437ADB0706D42C230B
:10265C0003FB06535B6A1B689B6898470023636106
:10266C002C20214606FB0050BDE870400AF09ABCB5
:10267C00400A0024827A2C21054B01FB02339A6A12
:10268C001B7F801A1B3323F00303B0FBF3F070475E
:10269C00400A002438B52C24827A094B04FB0233FF
:1026AC000C685B6A5B681A68944294BF0C600A60A1
:1026BC00D3E90054FFF7DEFF05FB004038BD00BF37
:1026CC00400A00242DE9F04385B0054690461C468F
:1026DC00684603910AF0A5FEDDE900674FF0100390
:1026EC00EFF3118983F31288BFF36F8F6B8B002B81
:1026FC0041D02A8B9A4225D900220023284605F086
:10270C00D5FB0446F0B189F31188BFF36F8F039B9F
:10271C00002B41D032463B4668460AF0A6FEA27A10
:10272C002C21234B204601FB023303A95B6A1B6857
:10273C001D68DDE90023A847606170BB2046FFF7E8
:10274C007DFF24E0698B4B1E6B8389F31188BFF3EB
:10275C006F8F2B7F2A8B1B33AC6A521A23F0030327
:10276C0002FB0344124B134AEB1A9B105343A37204
:10277C002B7FE372CBE789F31188BFF36F8F23466E
:10278C004246284605F092FB04460028BFD100249F
:10279C00204605B0BDE8F08363610023012263602D
:1027AC0022812382039A63696282E360F0E700BFAF
:1027BC00400A0024A38B2EBA70B50C4C2C2500B902
:1027CC0070BD037A4668013BDBB20372002BF7D174
:1027DC00C3604360837A05FB03431B6A13B19847BC
:1027EC003046ECE7FFF72AFFFAE700BF400A002467
:1027FC00004870476FEA00082DE9F8430368074664
:10280C000D461B689E68002E00F0B08091F83330A6
:10281C00C3F30218B8F1010F40F089808B68D1F82E
:10282C001890DC6801F018F9036822699A4203D108
:10283C002C464FF0080822E004F11001484600F045
:10284C006DFD0028F4D1AB68D9681031084607F04B
:10285C00FDF802460028EBD1284600F0F5F90446B5
:10286C00002871D08542E4D0284608F0D2F894F8BC
:10287C00333068F3061384F833304FF4C168A36A1D
:10288C0023B93C4BA362062384F82C304FF47A72A4
:10289C0000230E21204601F0FDF98146002853D07B
:1028AC00B8F5C16FC16849D094F83330C3F3021343
:1028BC00012B43D1A368DA681032104607F0C6F832
:1028CC0000283BD0104607F0BBF9236A09F10C0035
:1028DC001A68C1F806209B88A1F80C804B810E2148
:1028EC0007F09FF84946204608F0BAF8204608F051
:1028FC00EDF83A68B369214610689847064640B32C
:10290C00A0684368A3600023436008F07EF8B8F524
:10291C00C16F1BD1284608F05CF8A3683846D9680B
:10292C00103100F0FFFA204608F073F80EE0012297
:10293C000C4662F3061381F833309EE7A36A1A68DB
:10294C000A609B888B80C0E76FF00B063046BDE8B1
:10295C00F883A06803462BB94268A260436008F074
:10296C0054F8E0E71A8A5B681644F4E76FF0010646
:10297C00ECE700BF6FEA000838B5036805460D495F
:10298C009C6801236061201D23760AF0A7FB2B684D
:10299C0018688368DB6833B19847430542BF237ED0
:1029AC0043F00403237600F0D1FA637E43F0020374
:1029BC00637638BDD39A00087FB50BAB05930393B0
:1029CC000122054B029300231846CDE90033FEF794
:1029DC0047FD07B05DF804FB82EA000808B5084B18
:1029EC005A683AB11B68002123B19A4204D10448B9
:1029FC0007F065F9104608BD19461B68F4E700BFDF
:102A0C003C0F00242DE9F84307F069F94FF0FF3330
:102A1C0006464FF0FF32214807F080F9204B1C6826
:102A2C005CB12568C6F5FA69DFF874801D4F34B9BE
:102A3C001A48BDE8F84307F095B92546F2E76268F5
:102A4C0009EB0203002B21DC0121204607F04FF992
:102A5C0022460021404607F032F9002323607B68B0
:102A6C0033B9C7E9004435B12B682C461D46DEE767
:102A7C001C607C60F7E72B46F7E702F5FA620A2345
:102A8C00A2FB0323084805F015FCD1E7921B12F5B5
:102A9C00FA6FF2D100221346F4E700BF280F00248E
:102AAC00440F00244C0F0024480B00242DE9F74F51
:102ABC00DFF880A1044616465F484FF0FF32984677
:102ACC004FF0FF330F469DF8309007F027F90023A5
:102ADC00DAF800B03A4621460193584601AB07F0AC
:102AEC0033F9054668BBBBF1000F02D153480AF01D
:102AFC002FFBB8F1000F0BD0514801AB3A462146E1
:102B0C00006807F021F918B133680361B388838238
:102B1C00B9F1000F0FD00023494821463A460193E2
:102B2C0001AB006807F010F9014600285DD033684E
:102B3C000361B3888382404803B0BDE8F04F07F0CF
:102B4C0011B902460199504607F0B9F8DAF800308D
:102B5C0013B93A480AF0FCFA336805F1180829460B
:102B6C0037482B61B388AB8207F0A2F84FF0060907
:102B7C00AB69002BDFD04FF0FF334FF0FF324046F4
:102B8C0005F094F9836880F82C900646DB68836224
:102B9C00002C45D02368BFF35B8FDB68BFF35B8FE2
:102BAC009A0407D44FF0FF324FF0FF3304F16C005E
:102BBC0007F0B4F82368002B39D05B683146204607
:102BCC005B6898472368BFF35B8F0746DB68BFF3EE
:102BDC005B8F9B0403D404F16C0007F0C3F8002F47
:102BEC00C6DA304607F015FFC0E7164805688DB108
:102BFC002A4607F064F807F072F8C5E901043B684F
:102C0C00EB60336829460E482B61B388AB8207F022
:102C1C004FF890E7FFF7E2FE05460028EBD18AE774
:102C2C004FF0FF324FF0FF336C2007F077F80023A2
:102C3C005B68FFDE440F0024280F0024480B00249F
:102C4C003C0F00244C0F00242DE9F04F894687B02F
:102C5C0090460546B0B18368A3B1C2B9806907F04C
:102C6C0076FBA0B9AA6993688BB103F130091B6B91
:102C7C006BB903926F4A70490093CDE9013201227E
:102C8C00FFF79AFE0026304607B0BDE8F08F6B4E7A
:102C9C004FF0FF324FF0FF33694807F03FF8002345
:102CAC0037684A46059305ABA969384607F04CF8D6
:102CBC00044630BBDFF88CA10346DAF8000007F0BD
:102CCC0043F8064600283BD15F480468A4B322466B
:102CDC00314606F0F4FFD5F818B0B8F1000F3DD12D
:102CEC004FF47A7200231C215846CDE90023434649
:102CFC00424601F0B5F8064688BB514807F032F859
:102D0C00C1E7B84207D002460599304606F0D7FF16
:102D1C00214606F0CDFF4A48103407F023F854F84A
:102D2C00083C2E461B681B69AC622B62062385F897
:102D3C00243085F82C30A6E7FFF750FE0446CAE78E
:102D4C00284607F046FE014606F118000AF034F951
:102D5C000028C0D03A4807F005F893E72E46B06833
:102D6C001C210C3006F05DFEB368DF68002C52D0DD
:102D7C00284607F02EFE014604F118000AF007F968
:102D8C00B369A360D9F80030E360A3681B681B69C2
:102D9C00336200232360DAF80430C3BBCAE9004471
:102DAC0006F09DFF606029480AF025FB084305D119
:102DBC0044F620620023264805F07CFA4FF0060A00
:102DCC0086F824A0FFF714FD0821B062002386F8D2
:102DDC002CA00122B97004213B707A70FB7087F82B
:102DEC0004A07971BB71FA71C7F81230FB82D9F863
:102DFC000030BB61336A1A68BA609B88BB817CB9AE
:102E0C00AB68D8680C300368C7F80E3075E71C60E7
:102E1C00CAF80440C4E7DBF800301B693362CDE725
:102E2C00A3684146986806F07BFF0028EBD1C7F8F1
:102E3C000E0062E782EA00083CDE00083C0F00242A
:102E4C00280F0024440F00244C0F0024580B00249E
:102E5C00480B00242DE9F843DFF8B48005464FF009
:102E6C00FF324FF0FF332B4806F058FFD8F80040E4
:102E7C0024B126680027DFF8A09094B9274F3C684E
:102E8C002CB126684FF00008DFF88C9024BB3B680F
:102E9C0013B923480AF05CF91E48BDE8F84306F064
:102EAC0061BF234615B1A268AA420DD1002120466C
:102EBC0006F01DFF39464046224606F000FF21462B
:102ECC00484606F0F5FE3B4626B1326834461F46AE
:102EDC001646D2E73246F9E7234615B1A268AA4254
:102EEC000DD10121204606F002FF4146384622460C
:102EFC0006F0E5FE2146484606F0DAFE434626B1CA
:102F0C003268344698461646C0E73246F9E700BFA9
:102F1C003C0F0024280F00244C0F0024440F0024E5
:102F2C00480B00240A460146074808B500230068F0
:102F3C0006F00AFF20B1012106F0D9FE002008BDE1
:102F4C006FF00100FBE700BF440F002438B5124DB1
:102F5C002B7803BB114A124CC2E90033114AC4E965
:102F6C000033C2E9003310480AF005F80F49204637
:102F7C0006F09EFE01F1480009F0FDFF20460C49C9
:102F8C0006F096FE0B490C480AF0D6F80B4809F0EF
:102F9C0079FF01232B7038BD95130024440F0024B6
:102FAC004C0F00243C0F00246C0F0024540F002401
:102FBC00840F0024112A0008480B0024280F002439
:102FCC00036804481BBA1B0C1B041B1A58425841BB
:102FDC00704700BF0000FEA90A4A034610B507F06F
:102FEC00BDF882420C460BD11B6818688368DB68FD
:102FFC000BB1984703461C420CBF0120002010BDAA
:10300C000120FCE7340B00244FF0FF334FF0FF326C
:10301C0070B50546184807F0DCF8184B196879B1FB
:10302C000A684FF0FF334FF47A7659B95A1C1BD10A
:10303C0013480AF08DF81048BDE8704007F0F8B856
:10304C000A46EEE7CC69098C641B06FB014100299A
:10305C0009DD8B4228BF0B461AB110681146024697
:10306C00E3E71046FAE700230A220548A3FB0223F4
:10307C0005F020F9DFE700BFAC090024081000249C
:10308C00780B00242DE9F04105468846164607F0DA
:10309C00A2F8AC68002C38D0626900271C4B134096
:1030AC001C4A93421AD12388012B17D1221D10469A
:1030BC00FFF786FF90B908F1FF3003343B4610F858
:1030CC00011F14F801CF61450FD10833DBB2202B5F
:1030DC00F5D13178994201D81746337005F1580073
:1030EC0007F0A6F83846BDE8F08181EA0C01080625
:1030FC00EFD403F10800C0B201334900DBB2C9B20E
:10310C009842E6D00C06E4D4F6E72746E6E700BF83
:10311C0000FF0200000102002DE9F047254E07F0E8
:10312C002CF84FF0FF3280464FF0FF33224807F067
:10313C0050F834682CB1002527684FF47A7AA946E8
:10314C003CB94046FFF760FF1B48BDE8F04707F06D
:10315C006FB8E3692246218CA3EB08030AFB013309
:10316C00002B19DCA388012B06D1102304F10802D3
:10317C00A169124800F0FAFC23689DB972683360AB
:10318C00944200D1736094F822302A46C4F800901F
:10319C0069F3000384F8223057B13B683C4615466E
:1031AC001F46CDE72B6073689C4208BF7560EAE749
:1031BC003B46F3E708100024AC090024060004E0A9
:1031CC001FB50368002104469A7E07F00BF898B9E6
:1031DC00216802238B762068817E994232D003933A
:1031EC0001221E4B1E49029300231846CDE90033E1
:1031FC0006F0DFFF04B010BD0921204606F0F2FFF7
:10320C000028E5D00A21204606F0ECFFC0F10603A9
:10321C002168DBB28B762068817E9942DFD106294A
:10322C0010D1062AE6D0082106F0F3FF0023214630
:10323C000C481A4600F09AFC204604B0BDE8104039
:10324C0006F0DBBF062AD5D108210C3006F09DFF15
:10325C000023214604481A46ECE700BFB0EA0008F8
:10326C008CDE0008020001D0010001D0002808DD2E
:10327C00431E054800EBC310044B984228BF0020A6
:10328C0070470020704700BF980A0024180B0024D8
:10329C00054B064A934205D0054A1068002808BF22
:1032AC001846704700207047980A0024180B002419
:1032BC001010002438B504460D4606F08CFF06218C
:1032CC00204606F08FFF10B3A36843B105B12B6005
:1032DC00002504F1580006F0ABFF284638BD4FF02E
:1032EC00FF324FF0FF330B4806F073FF0A4BDA6BDB
:1032FC003AB9A360DC6305B12B60064806F098FF71
:10330C00E6E704486FF0020506F092FFE1E76FF084
:10331C008505DEE7AC090024C80F002470B50D4606
:10332C0068B1BDE8704007F031B82946204607F077
:10333C002DF818B98034B442F7D3002070BD014C7D
:10334C00014EF8E7980A0024180B002400232DE9FD
:10335C00F341054608460F468DF80730FFF730FE5F
:10336C00E8B9BDB10DF107022846FFF78BFE044604
:10337C000BE030460DF1070239468036FFF782FE2E
:10338C00002818BF04464645F3D3D4B1204602B0FA
:10339C00BDE8F0812C46154EDFF85480F3E725B1DB
:1033AC000121284607F00FF8E1E70121FFF770FF34
:1033BC0007F009F804460028E8D10C4E0C4FBE4229
:1033CC000BD30121284607F001F804460028DDD173
:1033DC0002B0BDE8F04100F03BBB0121304606F0E5
:1033EC00F2FF04460028D1D18036E8E7980A002481
:1033FC00180B0024F8B506460D46114C114FBC4273
:10340C0001D3002419E0204606F0E5FEA36804F180
:10341C0058001BB9803406F00BFFF0E79A7D920739
:10342C00F8D51A88012AF5D1326859689142F1D140
:10343C0005B12C601C4606F0FBFE2046F8BD00BF13
:10344C00980A0024180B00242DE9F34106460F4678
:10345C0090461D4606F0BFFE01A93046FFF72AFF35
:10346C00002833DBB468A37D9A0703D53A686368F8
:10347C009A420AD0B8F1020F019C02D1237D042B91
:10348C0002D0A37D9B0721D43CB906F1580006F06D
:10349C00CFFE204602B0BDE8F081A37D01220C488E
:1034AC0043F002032280A3753B68A17D6360B5FAEB
:1034BC0085F362755B0984F8148063F300010423BF
:1034CC00A175E218314600F051FBDEE70024DCE781
:1034DC00010004E070B504460E4606F07CFEA268BE
:1034EC000AB9002511E0937D9907C3F340050CD56B
:1034FC00506831688842F4D16FF341032146064885
:10350C00937504231A4400F031FB04F1580006F0C3
:10351C008FFE284670BD00BF020004E0F8B54FF0E6
:10352C00FF33054617460E484FF0FF320E4606F0A5
:10353C0050FE0C4B1B680BB11C6823B90848BDE846
:10354C00F84006F075BE5B683A4631462846984707
:10355C001CB1226823461446EFE72246FAE700BF67
:10356C00AC090024C00F0024F0B5002385B004463C
:10357C000D46CDE9003300294CD0294B1B68A3B173
:10358C00896A95F82C6081B1062E0ED80DF10A03CC
:10359C0032468DF80960184609F0F0FF95F82D3089
:1035AC0000908DF804608DF80530092120466F6974
:1035BC0006F018FE80B30D21204606F013FE38B934
:1035CC004FF0FF324FF0FF3304F16C0006F001FEB8
:1035DC002046294606F0C2FD4368204698470D2137
:1035EC000646204606F0FEFD18B904F16C0006F004
:1035FC001FFE002E02DA284607F00BFA1FB13146E7
:10360C00384606F0B0FD009B23B132466946204691
:10361C00FFF784FF05B0F0BD6FF07206EBE700BF5B
:10362C00C00F002438B5054606F0D5FD002128460C
:10363C0006F0D8FDF0B9284606F090FD044630B1EE
:10364C00846824B101212846A047041E0CDB00210C
:10365C00286806F0DEFD0023084829461A4600F0CB
:10366C0085FA2846FFF7ACFD05F1580006F0E0FDA1
:10367C00204638BD6FF07704F6E700BF040001D098
:10368C00074A08B5034606F069FD824206D11B685D
:10369C009B68987E431E5842584108BD0020FCE7A9
:1036AC00340B00242DE9F043474C89B0474D4FF0C3
:1036BC00FF322646464FDFF81C814FF0FF33464859
:1036CC0006F087FD07F056FCAC421AD3434B444A34
:1036DC009B1BDB09954238BF0023002B69D0414B63
:1036EC0040224149414883F8382009F025FD404BE0
:1036FC000022C3E90022384809B0BDE8F04306F0C7
:10370C0097BD20680368D3F80890B9F1000F02D078
:10371C00D9F800308BBB0023012241461846CDE975
:10372C000274CDE9003306F044FD00232046C4E9C1
:10373C00123384F850308DF81C30CDE90533FFF787
:10374C009FFF50B32B4A1368591C11602A4A082159
:10375C0005A805F091FA9DF8143043B9274A05A83D
:10376C001368591C11600821254A05F085FA20467A
:10377C0005A9803406F0CEFEA6E7062106F049FD29
:10378C0004F1580009F07EFB04F16C0009F07AFB9F
:10379C00D9F8003020469847C7E71A4B204606F068
:1037AC00DDFC8342D7D1184A1368591C1160174AA3
:1037BC00CDE7174A184607490093CDE9013201229B
:1037CC0006F0F7FC97E700BF980A0024180B0024BA
:1037DC00D2EA00088CDE0008AC090024970B002408
:1037EC00190A0024C80F002425310008780B002486
:1037FC0008100024BC0F0024F0EA0008B40F0024C9
:10380C00FDEA0008340B0024B80F0024F7EA000886
:10381C0003EB000838B5074C074DAC4200D338BD5C
:10382C000321204606F0DEFC10B92046FFF7FAFE15
:10383C008034F2E7980A0024180B00242DE9F04F8D
:10384C00022889B04FF0000483460E460292CDE95F
:10385C00064460D10B6804913BB94A6852B94C8953
:10386C004FF6FF73E11A4C424C4106A80022014668
:10387C00134608E01C46F8E70D78013301350D704E
:10388C00DDB2082D03D036F81350002DF4D00132E0
:10389C000131082AECD14FF0FF374FF0010A002319
:1038AC0010F8012B524588BF5FB203F1010388BFAA
:1038BC009246DBB2082BF3D1BAF1010F99464FF0C7
:1038CC003A024FF0000308BF4FF0FF37CDE9002359
:1038DC000298002200252B46B9F1040F5ED1019904
:1038EC00C95C034641BB302103F8021B00994170AF
:1038FC0018460135EDB24D452B46EDDB029B984247
:10390C000BD0BBF1010F4FF0000340F09C8000F88E
:10391C00013C029802E0012803D0002009B0BDE868
:10392C00F08F2E234FF004094FF0FF3782462646C6
:10393C00019100930494CBE74FF0000C4FF0090871
:10394C00CDF814C0DFF804C10391B1FBFCFE0CFBF5
:10395C001E11DDF814E0C64503DCDDF80CE0E6458D
:10396C0009D3DDF80CE0CDF81480BEFBFCFE0EF1A3
:10397C00300E03F801EB08F1FF384FF00A0EB8F1E6
:10398C00FF3FBCFBFEFCDFD14FF0000119701B1A8E
:10399C0050FA83F0009B00F8013BAAE774B1052DA7
:1039AC000CD906F10C034FF004094FF0010B0193F5
:1039BC003A2300F8013B2E2300938BE79F420DD155
:1039CC0002B915B93A2300F8013B3A23002200F85A
:1039DC00013B0AF1FF332B44DDB28AE712B13A23E3
:1039EC0000F8013B049B33F8152052BA12F47F4FB8
:1039FC00C2F307235FFA82F816D00F2BD9B20AD97B
:103A0C000023612206F09EFD01236122414606F04F
:103A1C0099FD01226DE7092B04D83031C9B200F8A9
:103A2C00011BF1E75731F9E7B8F10F0FEDD8B8F1F9
:103A3C00090F94BF08F1300808F157085FFA88F8AD
:103A4C0000F8018BE5E7037063E700BF00CA9A3BFF
:103A5C0000487047FCDF000800487047F8DF00089A
:103A6C002DE9F347DFF8B890DFF8B8804FF0FF325C
:103A7C004FF0FF336946484604F008F90546002824
:103A8C00F4D1294E4FF0FF324FF0FF33404604F093
:103A9C0057F9346814B12768AA462CB9404606F089
:103AAC008AFE04F06BFEE1E70099A06881EA00034E
:103ABC0081EA0002C3F30173C2F30A4213431DD11E
:103ACC008BB22BB183B21BB101EA00039BB2ABB139
:103ADC0000016368019A1CD5986908B190420DD118
:103AEC00A1609A61226875B9736832609C4200D1FA
:103AFC0072606068C4F800A004F00CFA6FB13B6807
:103B0C003C461F46C9E72A6073689C4208BF756033
:103B1C00EFE7204625469847F0E73B46F0E700BF25
:103B2C00100A0024E80900241C10002410B50446D7
:103B3C004FF0FF324FF0FF33094804F001F9094B05
:103B4C001A6822605A681C6002B95C60064AA36855
:103B5C00116803480B431360BDE8104006F02BBE00
:103B6C00E80900241C1000242410002438B5144B40
:103B7C000D46010C04461A68030F21EA124123EA90
:103B8C00127320EA020203F00303C1F30A0192B29A
:103B9C000B43134313D14FF0FF324FF0FF3309485F
:103BAC0004F0CEF80849C1E9004500236422074817
:103BBC0004F016F80348BDE8384006F0FCBD38BDEB
:103BCC0024100024FC09002414100024100A0024E2
:103BDC0010B588B0002200230C4C0D492046CDE9CD
:103BEC00062300234FF0FF32CDE90133CDE9032347
:103BFC0000934FF44872074B03F07CFF06492046B4
:103C0C0008B0BDE8104009F022B900BFA80B002491
:103C1C00C01300246D3A00086CEB00084FF0FF3223
:103C2C000121014809F0D7B928100024F0B585B05E
:103C3C0006460F4615461C4609F003F908B1002547
:103C4C002C46802F07D82A462346304605B0BDE8BF
:103C5C00F04005F0D0BE0024064B01220649204658
:103C6C0002932346CDE9004406F005FE204605B03C
:103C7C00F0BD00BF9CEB0008A4DE00080146014823
:103C8C00FFF7D4BF400A002401460148FFF7CEBF1E
:103C9C006C0A002410B404460846054964688C423A
:103CAC0002D110BCFFF7EABF10BCFFF7EDBF00BF9D
:103CBC006009002473B5054616461C4609F0C1F888
:103CCC0008B10026344601A932462346284603F0A3
:103CDC00A3FE014690B9019C3C22204609F05CFCF5
:103CEC00074A0123204695426560E36108BF84F8CA
:103CFC00383006F0EBFE204602B070BD0024FAE727
:103D0C007C0900242DE9F04F89B00646904689467F
:103D1C00DDE9127531B92AB990F8333013F0700F10
:103D2C0000F08A8009F08DF808B100273D46304636
:103D3C0006F0A0FE96F83340E8B914F0700FC4F307
:103D4C0002131AD0012B0CBF14230023B8F1110F4E
:103D5C0009D10833C4F30212B4694B447CB9012A6B
:103D6C0011D01C4614E0B8F1010F02D0B8F13A0F93
:103D7C00F0D10433EEE70023ECE70346EAE72168D1
:103D8C00012A0C8B37D1B4F5107F38BF4FF4107467
:103D9C00241A2D4970689C422C4A28BF1C462C4B77
:103DAC00CDE90457884214BF92469A462B4600250B
:103DBC003A4606A8A34609F034FB2F46DDE90689EE
:103DCC00DDE904325046049505F015FE04990546CC
:103DDC00B8B9002F34D11F4B01221F490293002385
:103DEC0003941846CDE9003306F045FD6FF00B0047
:103DFC0009B0BDE8F08F4968184A9142B1D10E3430
:103E0C00C6E707B9D1B14D606B8A424606A85B453F
:103E1C0088BFA5F812B06B8AABEB030B4B4609F0CD
:103E2C0024FBDDE90623BBF1000FCBD1002FD2D050
:103E3C003946304606F05EFE0020D9E70746E3E738
:103E4C003846FEF7B9FCC6E77C090024400A00247A
:103E5C006C0A0024DDEB0008A4DE0008340B0024FF
:103E6C0030B585B0DDE90845009313460A46014696
:103E7C000348CDE9024506F04EFE05B030BD00BF4B
:103E8C007C09002430B585B0DDE908450093134664
:103E9C000A4601460348CDE9024506F03CFE05B052
:103EAC0030BD00BF60090024F0B54E6885B00446F3
:103EBC000D4607F015F8864203D823692B60286855
:103ECC000FE094F833202B68D207F8D55BB90C4A75
:103EDC0018460C490093CDE90132012206F0CBFCC7
:103EEC00002005B0F0BDD4E903766A681946204677
:103EFC0006F007FFC4E903760028E0D0F0E700BF26
:103F0C0002EC0008A4DE00087FB50BAB059303930D
:103F1C000122054B029300231846CDE90033FDF72F
:103F2C009FFA07B05DF804FB31EC000800EB800051
:103F3C00024B03EB401009F02AB800BF280C0024F8
:103F4C000828024B28BF0020185C704754EC00086E
:103F5C0010B588B0144C204609F00DF84FF0FF3224
:103F6C004FF0FF33114904F118000094CDE90623FA
:103F7C000023CDE90323CDE901334FF4C0620C4B90
:103F8C0003F0B8FD034650B90A4A0B490390009060
:103F9C00CDE901020122FFF7B7FF08B010BD08B050
:103FAC00BDE8104008F058BF280C0024401700242E
:103FBC0061AF000831EC0008ACDE00082DE9F341DC
:103FCC000746884616464FF0FF334FF0FF32144831
:103FDC006FF0010503F0B4FE124B1C6834B91048A5
:103FEC0003F028FF284602B0BDE8F081227C33782C
:103FFC009A4213D1637C72789A4200D073B9A36849
:10400C0013B1BA69934209D1E36842463946204656
:10401C00009333466568A847051EE0DB2468DDE79E
:10402C00C009002440100024F8B50F4616461D4662
:10403C000446D0B1CBB11422002109F0ADFA656071
:10404C00277466744FF0FF324FF0FF33084803F0CB
:10405C0077FE084B1A6822605A681C6002B95C60D3
:10406C00034803F0E7FE0020F8BD6FF01500FBE7F6
:10407C00C00900244010002402460B46014803F0FE
:10408C005FBE00BF98090024014803F0D3BE00BFF7
:10409C00980900242822002110B5044609F07CFA66
:1040AC004FF0FF304FF0FF31FFF7E6FF054B1A687A
:1040BC0022605A681C6002B95C60BDE81040FFF7D2
:1040CC00E3BF00BF501000242DE9F04F89B09B4690
:1040DC0081468846BDF84C301546149EBDF8487094
:1040EC00059336B3304606F068FB04904FF0FF3072
:1040FC004FF0FF31FFF7C0FF854B1C68002C7DD0C3
:10410C002168059B93FA93FA1FFA8AF3069394B9E4
:10411C00FFF7BAFF4FF0FF304FF0FF31FFF7ACFF66
:10412C007C4B1C68002C6DD1FFF7AEFF6FF00100CB
:10413C0052E00496DAE7208C48451BD194F8220013
:10414C00404517D194F8230000F00403BBF1000F95
:10415C0016D07BB1BBF800C0BCF1010F0AD1B4F88A
:10416C000CC0BCF1010F05D1DBF804E0D4F810C091
:10417C00E64507D0002943D008680C460146C6E73F
:10418C00002BF7D1B4F80EC0069B9C45F2D100F081
:10419C00020025B30028EDD028880128EAD1A08898
:1041AC000128E7D1D5F804C0A0688445E2D178BADB
:1041BC00B4F806C080B28445DCD1FFF765FF564BDE
:1041CC00012256490293002303941846CDE900338B
:1041DC0006F0DCFE6FF06F0009B0BDE8F08F002830
:1041EC00C8D1049B002BE2D0A0690028DFD0079136
:1041FC0006F0E3FA07990028D9D0BBE7214680E7FF
:10420C000846BAE7596820688C42186008BF5860A5
:10421C0000232360FFF738FF002D39D029880023B5
:10422C00012926D12B6863606B68A3606B68003B27
:10423C0018BF01235B0143F00203BBF1000F2DD02B
:10424C00BBF80010012925D1DBF80010E160DBF888
:10425C0004102161DBF8041009B143F0400343F072
:10426C000403DDB12988BBF80020914216D02C4BF9
:10427C0011E02C4A0292184601222849CDE900335C
:10428C0006F084FE2046FFF705FF6FF01500A3E74C
:10429C002B46D2E7244B02930023ECE71FB17FBAE5
:1042AC0043F00803E780059A1AB143F01003A4F811
:1042BC000EA0159A84F823306261179B169AA4F805
:1042CC002090E26184F82280A66103B11C6094F80E
:1042DC0023304FF0FF304FF0FF3143F0010384F8EF
:1042EC002330FFF7C9FE0A4B1A6822605A681C601B
:1042FC0002B95C60FFF7C8FE304606F061FA94F82C
:10430C00243060F30003002084F8243064E700BFFD
:10431C0048100024501000246CEC000854DE0008F7
:10432C00D6EC00089BEC0008B9EC00082DE9F04F26
:10433C00994690F8333089B00546C3F302130E4604
:10434C00D0F818800293013B0492012B1CD8112A3F
:10435C0013460BBFD9F800304FF0000B1A88CDF87C
:10436C000CB004BF0392B3F802B0029B012B44D1F2
:10437C000F68002107F10C042046FFF73BF882463A
:10438C0030B1039B9B4514D1022009B0BDE8F08FDE
:10439C00FFF762FBFA6803689A42F2D02146504656
:1043AC00FEF7BCFF3368DA681B699A42E9D0002833
:1043BC00E7D131680B6903F0F003E02B1FD010310B
:1043CC004046FEF7ABFF07464FF0000A574B4FF045
:1043DC00000C4FF000081C684FF0FF33CDE905C30B
:1043EC008CB9BAF1000F00F09480059B002B7DD0A6
:1043FC00284606F00EFB2046C7E70027E4E7002717
:10440C004FF0010AE2E7A369002B40D194F8223067
:10441C00002B4BD1238C049A934245D1E38813B1E2
:10442C00039A934240D1E3890BB15B453CD194F89C
:10443C00233099070ED595F83320A188C2F30212C8
:10444C00914231D1012905D1A2681AB13168C968EC
:10445C008A4229D15A070ED595F83320A189C2F387
:10446C000212914220D1012905D122691AB1316879
:10447C0009698A4218D103F07803069A9A4213DA32
:10448C00BAF1000F16D11BB2A04606930CE0B3F89C
:10449C005E201005BAD5AA6993F960000792FEF761
:1044AC00E5FE079A8242B1D0246899E7029A9A42B3
:1044BC00B0D0F9E74FF47A720023284606F00DFDD0
:1044CC00014600283FF460AFE36932460590204670
:1044DC0000934B46D4F814C0E0470228059902D14A
:1044EC00084606F096FACDF814A0DDE7B8F1000FF7
:1044FC003FF44AAFD8F81C30324629464046009368
:10450C004B46D8F81440A047831E584258414000EF
:10451C003BE7B8F1000FEDD1002F7FF435AF03224C
:10452C002846114606F002FF2EE700BF4810002473
:10453C000A4A002310B5C2E90033094A184611464D
:10454C001446013328320860042B02D00846114669
:10455C00F7E7044B044AC3E9002410BD48100024BB
:10456C005810002450100024D010002470B50446BC
:10457C000D4608F054FF0A220023FCF76FF9256161
:10458C0000220023C4E902010248BDE8704003F098
:10459C0091BE00BFC80C002470B5C16A044611B9A5
:1045AC00816A4908C162236B43B940F26B32A36A3A
:1045BC0053434FF47A72B3FBF2F3236399424FF0F7
:1045CC00060204F1100528BF194684F83C20284641
:1045DC00FFF7CCFF2A46214638230248BDE870403D
:1045EC00FFF7C4BA080004E002460B46014803F08A
:1045FC00A7BB00BFD4090024014803F01BBC00BFBB
:10460C00D4090024002370B51A4604460D46014611
:10461C001848FFF7ABFA4FF0FF304FF0FF31FFF7C0
:10462C00E3FF94F83C30F3B9012384F83C30FDF7F8
:10463C00F1FF606235B10923B0FBF3F303EBC30365
:10464C00C01A451C0C4E336813B90C48FFF76EFAB0
:10465C00002304F110002361736843B9C6E900001C
:10466C002946FFF783FFBDE87040FFF7C5BF186010
:10467C007060F5E7070004E004110024F810002432
:10468C002DE9F04F91B0904606460F4605AA9DF8CD
:10469C006CA09DF870901D4603922C22049213B9C5
:1046AC00FFF7D6F90546BAF1000F0CBFF421FA2139
:1046BC00B9F1000F00D00631012F4FF0FF324FF04F
:1046CC00FF33304608BF0531CDE900231123012209
:1046DC00FFF7C6FB0446002800F09180FF231A9ACE
:1046EC00294680F8353006F000FF002840F0848021
:1046FC004FF486424FF48841204606F0FDFF834676
:10470C00002879D103A92046FFF7CEFB2A220546C3
:10471C005946023008F040FF01232B706B70336850
:10472C001B7DAB70736A1BBA6B60B8F1000F02D0C3
:10473C00D8F80030EB60336805F11C0019691A7D5C
:10474C0008F01CFF03A9204606F0FFFB01460028D9
:10475C0052D14022204606F0C9FA014600284BD11E
:10476C008022204606F0C2FA002845D104222549B1
:10477C00204606F0CFFB00283ED10DF10B030122A1
:10478C00352120468DF80B7006F03FFCA0B3BAF132
:10479C00000F28D1B9F1000F07D006F1380304221D
:1047AC003221204606F031FC30B3012F06D1164BD6
:1047BC0003223721204606F028FCE8B1FF23012212
:1047CC000DF10B0120468DF80B3006F0A3FB98B9C8
:1047DC00204606F07BF91121204606F09AFE204671
:1047EC0011B0BDE8F08F06F13403042236212046C7
:1047FC0006F00BFC0028CDD1204606F00AF9002467
:10480C00EDE700BF4BEE00082C0900242DE9F04F1A
:10481C0095B00D46914609AB07932C23089320B90C
:10482C000224204615B0BDE8F08F0029F8D08C6921
:10483C00002CF5D08B680022002B4AD1472AEFD9E7
:10484C00284606F043F91C21284606F09AF9002860
:10485C00E6D107A92846FFF727FB80460028DFD0C2
:10486C004FF0FF304FF0FF31FFF7BEFE98F80030ED
:10487C00022B2AD1D8F80430626A1BBA9A4224D18E
:10488C00236808F11C001E7D1969324608F08CFE65
:10489C00D8B998F80230B34217D10899284606F0D7
:1048AC0070F9C021284606F06CF970B9042205A9EC
:1048BC00284606F026FA40B9042205A99F4808F0BC
:1048CC0073FE0646002800F0F1800224FFF794FEE8
:1048DC00A7E7198A5B680A44AEE701220DF11201C1
:1048EC00284606F00EFA834650B1954B0097CDE959
:1048FC0001733B4601229349184606F057FBE4E747
:10490C009DF813709DF812203B2F05D8322F08D834
:10491C00012F1FD0032F61D01146284606F031F924
:10492C00B0E0333F082FF7D801A353F827F000BFAE
:10493C002B4A000825490008994A0008814A0008BA
:10494C00254900082549000825490008494A00085E
:10495C00674A0008042A07D07B4B3A4679490090F5
:10496C00CDE901030346C8E706A9284606F0C9F9B4
:10497C0030B1764BCDF800B0CDE901B35B46B9E769
:10498C0006A9204605F025FD01220DF1130128464C
:10499C0006F0B7F90746002897D19DF81330FF2B86
:1049AC009BD1022E40F08480BAF1000F05D106A9EC
:1049BC002046CDF818A005F021FDD9F80030DB68B1
:1049CC00636494F83C30022B7AD103232046A387EE
:1049DC00D8F81030A36306F065FB71E0930701D1A2
:1049EC00032A05D85A4B02930023CDE9003381E703
:1049FC00042206A9284606F084F908B1554BF2E7C3
:104A0C009DF812102846043906F0BBF80028F5D1A1
:104A1C0006A920464FF0010A05F0F0FCB4E7042A81
:104A2C0001D04D4BDFE704F12801284606F072F95E
:104A3C0010B9A36A002BA7D1484BD4E7042A7FF402
:104A4C0044AF04F12C01284606F064F900287FF4E9
:104A5C003CAFE36A002B97D137E7042A7FF435AFDC
:104A6C0004F13001284606F055F900287FF42DAFEB
:104A7C00236BEFE7042A7FF428AF04F134012846B6
:104A8C0006F03FF900283FF47FAF1EE7012A7FF4C0
:104A9C001CAF002306A928468DF8183006F031F912
:104AAC0000287FF412AF9DF818606DE782466BE723
:104ABC00D9F80030052EDB68636406D0062E19D0B9
:104ACC002846002405F0A5FF00E794F83C30032BA2
:104ADC0006D0043B012BF3D82046FFF75DFDEFE732
:104AEC00A36A022204F138012046FEF7ADFC00282F
:104AFC00F2D1E5E794F83C30032B0DD9043B012BA4
:104B0C00DED804F138012046FEF7E4FCA763C4E9C3
:104B1C000A77C4E90C770DE0042204F1440104F196
:104B2C00400008F041FD0028CAD1A063C4E90A0086
:104B3C00C4E90C000223A387C2E700BF4BEE0008B8
:104B4C00FAEC00086CDE000815ED000835ED0008E5
:104B5C0057ED000872ED00088FED0008AEED00086F
:104B6C0038B54FF0FF300D464FF0FF311446FFF7CC
:104B7C003BFD174B04F110021B681BB9BDE8384014
:104B8C00FFF73ABD934219D01B68F6E7114B9D42D3
:104B9C00F4D108F044FC0A220023FBF75FFE013835
:104BAC004FF000034FF0000261F10001236200237B
:104BBC00C4E90601084803F07DFBDFE7074B9D4283
:104BCC00E4D194F83C30062BD8D10423A387D5E745
:104BDC0004110024020001D0C80C0024010001D0F3
:104BEC002DE9F74F08F01BFC00230A22FBF736FED9
:104BFC0006460F464FF0FF304FF0FF31FFF7F4FC45
:104C0C00674B1C68BCB1D4F800A04FF0FF38A4B9B6
:104C1C00FFF7F2FCB8F1FF3F00F0BF804FF47A735E
:104C2C00604803FB08F80A23A8FB032303B0BDE884
:104C3C00F04F03F03FBBA246E7E74FF47A732069CD
:104C4C005843D4E90231C01841F10001864277EB98
:104C5C0001030EDA801B40F2E7334FF47A7261EBFA
:104C6C000701C0184FF0000341F10001FBF7A6FD4E
:104C7C00F8B954F8103CBFF35B8FDB68BFF35B8F64
:104C8C00DA0714D554F8103CBFF35B8FDB68BFF325
:104C9C005B8FDB050BD594F82C30A4F11009013B8C
:104CAC00052B04D8DFE803F0141C106D6D204FF0B9
:104CBC00FF30804528BF8046BAF1000F6BD0DAF880
:104CCC00003054469A46A2E794F82D30022B52D964
:104CDC000023C4E90633C4E90833A3620223A38585
:104CEC00484606F0B4F9E4E7A3684FF47A7BE06930
:104CFC000093E3680BFB00F00193009BC018019B31
:104D0C0043F10001864277EB01032EDA801B40F25F
:104D1C00E7334FF47A7261EB0701C0184FF00003D0
:104D2C0041F10001FBF74AFD0546F0B1206A009AFB
:104D3C000BFB00F08018019A42F10001864277EBE0
:104D4C0001031CDA801B40F2E7334FF47A7261EBFB
:104D5C000701C0184FF0000341F10001FBF72EFDD5
:104D6C0068B1A84228BF2846A3E7042384F82C3056
:104D7C00002384F82D30484606F094F999E7052372
:104D8C00F4E794F82D30022BF5D904F128014846AC
:104D9C00FEF7A0FB9CE7534693E703B0BDE8F08F0A
:104DAC0004110024C80C002410B588B0FEF750FE86
:104DBC000368079300240E4B012006AA2146ADF888
:104DCC001800CDE901434423CDE903440093432368
:104DDC0006F0E9FC002809DB0648074908F0ACF9A5
:104DEC00064B074A20465A60064A9A6008B010BD26
:104DFC0019480008C80C0024ED4B0008F8100024DA
:104E0C006D4B0008030001D0F0B587B000220423DD
:104E1C000E4604A90446CDE90423FFF745F80746DE
:104E2C0010B9022007B0F0BDA06905F04AFB10BB19
:104E3C0006F11001A06906F09DF905460028F0D195
:104E4C000599204605F09DFE3A463146204606F06F
:104E5C0092F800280ADA0B4B0122039028460A49E3
:104E6C000095CDE901532B4606F095F9204605F047
:104E7C00D0FD0020D6E70121204605F000FC0028DB
:104E8C00D6D0CEE74FEE000884DE00087FB50C4B81
:104E9C00002208210B48FFF7C7F800280CDA0A4B50
:104EAC00012204900393094B0949029300231846ED
:104EBC00CDE9003306F06FF907B05DF804FB00BFD5
:104ECC00F5B100080C1100246CEE00086EEE000821
:104EDC0084DE00082DE9F041054600244FF001085E
:104EEC004FF0B0460E4F2B7853FA84F01F280FDC8E
:104EFC0008FA00F3D6F8882033EA020208D1C6F883
:104F0C00883057F830301BB107EBC0025168984716
:104F1C0001346A78E3B29A42E5D2BDE8F08100BF71
:104F2C0020110024044B03EB40000023013320F834
:104F3C00022B9942FADC70470C090024084B0246FC
:104F4C004FF0B04110B433F910000123D1F8804078
:104F5C0093402343C1F8803010BCFDF7A5B800BFC7
:104F6C000C0900240A4B30B553F830408C4204D164
:104F7C0003EBC0056D68954205D034B943F8301089
:104F8C0003EBC0035A60002030BD6FF00F00FBE74D
:104F9C0020110024034B002243F8302003EBC00304
:104FAC005A60704720110024044B05489B6A03F09B
:104FBC000303022B18BF0020704700BF00440258A7
:104FCC0000127A0008B50A4B1B6903F03803102B4A
:104FDC0009D0182B09D1FFF7E7FF40F21313800813
:104FEC005843400808BD0348FBE70020F9E700BF21
:104FFC000044025800127A0010B50A68102A23D80F
:10500C00134BD340DB071FD54A68D3B2C2F34234EB
:10501C00C2F3042203F1B04304FA02F203F5113394
:10502C00186820EA02021A604968CBB2C1F3024246
:10503C00C1F3042103F1B0438A4003F5113318681E
:10504C00024300201A6010BD6FF08500FBE700BF23
:10505C000E3C010008B5324B18680B68102B2DD88C
:10506C0013B96FF0850028E0013B0F2BF9D801A193
:10507C0051F823F0015100080F5100081F5100088E
:10508C006F5000086F5000086F5000086F500008F8
:10509C006F5000086F500008C1500008EB5000081A
:1050AC00F7500008FD5000086F5000086F500008C2
:1050BC00F15000081B481060002008BDD42B0CD008
:1050CC00D83B1C2BCDD8012101FA03F316490B4216
:1050DC001DD140F211110B42C3D04008EBE74FF445
:1050EC000040E8E7FFF76EFFE5E74FF4FA40E2E730
:1050FC000E48E0E7FFF758FF40F2131380085843BF
:10510C00D9E7FFF751FF40F213138008584380088A
:10511C00D1E7FFF749FF40F2131380085843DCE74F
:10512C000009002400127A0000101111006CDC023E
:10513C007D4B37B5D3F8E02042F00072C3F8E02085
:10514C00D3F8E02002F000720192019A1A6842F43E
:10515C0080221A601A6842F480321A601A6894032A
:10516C00FCD55A6F42F001025A676F4B5A6F900789
:10517C00FCD56E490A6842F480720A601A6F22F0FC
:10518C0018021A671A6F42F001021A67664B1A6FFF
:10519C009107FCD51A6842F480521A601A6892047E
:1051AC00FCD51A6902F03802182A17D11A6855076B
:1051BC0007D41A6842F001021A605B4A13685C0754
:1051CC00FCD5594B1A6922F007021A611A6912F0C0
:1051DC00380FFBD19A6922F00F029A61524B1A6870
:1051EC0022F080721A609A6A22F0030242F00202E4
:1051FC009A629A6A22F47C7242F040029A62DA6AEB
:10520C0022F00C02DA62DA6A42F00202DA621A6BFB
:10521C0022F4FF7222F0010242F489721A63DA6AF4
:10522C0022F00102DA621A6B22F47E421A63DA6A05
:10523C0042F48032DA621A6B22F4FE0242F44032FB
:10524C001A63DA6A42F40032DA621A6B22F0FE4216
:10525C0042F080721A63DA6A42F48022DA621A68C7
:10526C0042F080721A601A689001FCD52F4BDA68F4
:10527C0022F0070242F00202DA609A6922F44042FC
:10528C009A619A699104FCD5294DFFF79BFE04465F
:10529C00A84202D8274802F04DF9234B9A6922F410
:1052AC0070629A619A6922F00F0242F008029A61C8
:1052BC00DA6922F0700242F04002DA61DA6922F413
:1052CC00E06242F48062DA619A6922F0700242F084
:1052DC0040029A611A6A22F0700242F040021A628D
:1052EC001A6922F0070242F003021A611A6902F0ED
:1052FC003802182AFAD1AC4202D90E4802F01AF937
:10530C000A4BDA6822F0070242F00202DA609A696C
:10531C0022F440429A619A699204FCD5064B002013
:10532C00064A1A6003B030BD0044025800480258C7
:10533C00BF2A6410C02A6410000900248055C820BC
:10534C0008B5074807F0B1FC38B10648FDF728F955
:10535C000448FBF7EFFE002008BD6FF01200FBE7DE
:10536C0080D80008755300080A2838B50446074D44
:10537C0004D1AB680D2128465B689847AB68E1B255
:10538C0002485B689847204638BD00BF80D80008AB
:10539C0008B54FF01003EFF3118183F31288BFF3BC
:1053AC006F8F084B012093F8482083F8480081F355
:1053BC001188BFF36F8F12B95020FCF775FE0020D7
:1053CC0008BD00BF3C080024F8B51646837890F859
:1053DC0003C04FF01004EFF3118284F31288BFF373
:1053EC006F8F077890F801E0DB1B3C4603EA0C0357
:1053FC009E4288BF9EB2BD190CEA0505057082F36A
:10540C001188BFF36F8F8A198A421BD177450DD152
:10541C004FF01001EFF3118281F31288BFF36F8FFD
:10542C000178417082F31188BFF36F8F02799B1B57
:10543C009A4205D307F005FD60B1084802F0CEFE94
:10544C003046F8BD051901346D7904EA0C0401F8F5
:10545C00015BD9E7FFF79CFFF2E700BF740800245B
:10546C002DE9F843134F0D46144607F1560807F182
:10547C00180914B92046BDE8F8834FF0FF324FF0FD
:10548C00FF33384602F06CFD224629464046FFF7B2
:10549C009BFF064630B94FF0FF324FF0FF334846C2
:1054AC0002F05EFDA41B3846354402F033FDA4B275
:1054BC00DFE700BF4408002438B50469456830486C
:1054CC00606007F0F2FB002856D06068296883689A
:1054DC001B689847012204F10800114607F07BFD78
:1054EC000122002104F1200007F075FD254904F18B
:1054FC00380007F0F3FD07230022502084F86130B8
:10550C000423114684F85E2084F862300F2384F85B
:10551C005F2084F84C300C2384F8602084F84920F8
:10552C0084F84A2084F84B2084F84D30FCF7ECFDCD
:10553C00154B164A4AF674201B681A611969814288
:10554C000ED0196841F0804119601A611A611A6114
:10555C0018611A6822F080421A601A685200FCD452
:10556C001A6842F004021A601A6842F008021A60C3
:10557C00FFF70EFF002038BD6FF01200FBE700BFF5
:10558C0040D70008A7B900083C080024BC0A5917EA
:10559C001C4B1B684FF01002EFF3118182F3128841
:1055AC00BFF36F8F5A68500605D45A68D2071DD4C2
:1055BC006FF00A0015E01A6842F080421A601A680F
:1055CC0022F080421A600A221868400005D45868FC
:1055DC00400602D458684007E7D5013AF4D16FF081
:1055EC00040081F31188BFF36F8F70475A689007DE
:1055FC00F5D45A685206F2D498680028D8D0C0B2B4
:10560C00EFE700BF3C080024D8072DE9F0470F4610
:10561C00144604D42548FFF7D7FEBDE8F087002ACE
:10562C0035D04FF01003EFF3118583F31288BFF3DD
:10563C006F8F5020FCF75AFD06465020FCF742FDB8
:10564C0085F31188BFF36F8FDFF86480D8F80030D2
:10565C005A68510714D45B685A0611D4DFF8549079
:10566C004FF4803A2546C9F888A1D8F800305B6819
:10567C00DB070ED4BFF34F8F20BF40BF20BFF4E732
:10568C000024FFF785FF16B15020FCF70DFD2046D6
:10569C00C3E7FFF77DFF031EC9F888A1E5DB013DD9
:1056AC00ADB27B55002DE0D1EDE700BF850800249D
:1056BC003C08002400E100E010B5FFF769FF00286A
:1056CC0023DB184CC0B294F84B3094F84A1094F881
:1056DC004C20591A32EA010110D194F8603094F838
:1056EC005F1094F86120591A32EA01010ED1502052
:1056FC00FCF7E8FC002384F848300EE0E118013395
:10570C001A4081F84E0084F84B2010BDE11801338B
:10571C001A4081F8630084F860200348BDE810400B
:10572C0002F0F8BB3C0800245C08002438B503697F
:10573C0004465860084D284607F0B7FA40B1616836
:10574C002846AB680C311B68984700EAE07038BDFE
:10575C006FF01200FBE700BF40D70008F7B5174603
:10576C000C461D464668B7F5001F026928D101F0AA
:10577C0003030F2204339B009A4042EA91023749FB
:10578C0002F00303023351F82310130C93FAA3F322
:10579C00B3FA83F301EA124203F01F0322FA03F374
:1057AC00B2689A4209D1204606F093F82046FFF7DA
:1057BC00F1FB0021204606F099F8002003B0F0BD63
:1057CC00B7F5800F44D026492046FFF7CBFB0028C5
:1057DC0041D1244A6B46B66892E8030083E8030083
:1057EC0021481946826812689047D8B904F003031F
:1057FC000F2104339B00994041EA940101F003030B
:10580C000A0C92FAA2F29B00B2FA82F203F1B043B4
:10581C0002F01F02D3F80804964020EA11410E430F
:10582C00C3F80864B5F1806F0ED0B5F1C06F0DD020
:10583C0005F17E43594259414900204606F056F87D
:10584C002046FFF77BFBB8E70121F6E70321F4E7DD
:10585C006FF08500B2E76FF00F00AFE7000400585F
:10586C0069BB0008FCDE000840D7000808B5094BEE
:10587C0000201A46197B31B1013010330428F9D1BC
:10588C0002F07CFFF3E702EB0012012380B21373EA
:10589C0008BD00BFA4120024F0B5036889B004460B
:1058AC001E6835692B6873BB012728600323062209
:1058BC00291D204604F01EFD2046FDF75DF820460C
:1058CC0004F015FE0FB3736805F5EC641B6898477C
:1058DC000022002305F5A07120460096CDE9062391
:1058EC0000236FF00D02CDE90133CDE90323084B02
:1058FC004FF4BC6202F0FEF80649204609B0BDE840
:10590C00F04007F0A4BA0027D0E709B0F0BD00BF03
:10591C00255900088AEF00082DE9F04F074687B09B
:10592C0004694FF47A784FF0000941F28832002371
:10593C0004F1D40002F014FB00286DD194F8E03788
:10594C002BB90123206884F8E03704F089F9DFF8DB
:10595C0014A13D69002305A905F10C00059306F07F
:10596C00D9FE01460028E0D1059E6EBB286833465F
:10597C003246CDE90089FEF785FA054640BB3A4B25
:10598C0001223A490096CDE90163334606F029F924
:10599C000025059E0023002E3BD1002DC5D02946A5
:1059AC00A86904F0A5FB0028D3DA314B012203903F
:1059BC0030462E490096CDE90163334606F011F9C5
:1059CC00284605F026F8C4E7B38836681944CCE7B6
:1059DC00059E4FF4BF6B274B002EDAD0A6EB0A01C5
:1059EC00B2882846C9100BFB013105F093FA214B04
:1059FC0068B1214B01221D49029300231846CDE9C1
:105A0C00003306F0EEF8284605F003F8C0E73668D8
:105A1C00E2E7B3713668BEE70B3086D104AB0122E6
:105A2C00002104F10C0006F0D0FF00287FF47DAFBC
:105A3C00049B94F8E02713F0040309D0002A7FF4A8
:105A4C0074AF0123206884F8E03704F009F96CE79F
:105A5C00002A3FF46AAF206884F8E03704F014F9A8
:105A6C0063E700BFE4120024BCEF00080CDE000862
:105A7C0092EF0008E0580030D7EF0008F0B5076946
:105A8C00A3B045687748C7F8BC0007F00EF9034689
:105A9C0060B9754A6FF0120474490090CDE90102A7
:105AAC00012206F09EF8204623B0F0BD291DD7F840
:105ABC00BC0006F082F8044605F11401D7F8BC00CE
:105ACC0006F07BF8044305F10C01D7F8BC0006F096
:105ADC0074F804430CD0664B012264496FF0040443
:105AEC00029300231846CDE9003306F07AF8DAE782
:105AFC00E86909AA214606F0A6F8051E07DB099BF2
:105B0C0022461979186800F007FA051E0BDA594B72
:105B1C00012256492C46029300231846CDE9003346
:105B2C0006F05FF8BFE7802307F10C053C717B7131
:105B3C00E1232846BB71C023FB71FF233B72EE238C
:105B4C007B723B1D3B614C4BBB614C4BFB614FF47F
:105B5C00BF633B6201F096FB032872D1484B0122D4
:105B6C00424920460094CDE90143234606F039F81A
:105B7C00444B342200210026184607F00DFD21224B
:105B8C0087F8E06740F8042C07F1C00007F07AF9B9
:105B9C004FF0FF32314607F1D40007F01CFA4FF0FA
:105BAC00FF32314607F1EC0007F015FA284601F0F8
:105BBC002DFB09A9284606F035FF4FF480434FF41E
:105BCC00005209A92846CDE90E3207F017F850B15A
:105BDC002D4B01220390304624490096CDE90163F8
:105BEC00334605F0FEFF294A2846294B03F5BF61D1
:105BFC00136003F53F631161136203F5BF63136315
:105C0C0001F0A4FA48B1234B012218490293002356
:105C1C001846CDE9003305F0E4FF05A9284606F047
:105C2C00F9FF4FF4807305A92846ADF8183000230E
:105C3C008DF8163001F050FC00210A2002F020FEF5
:105C4C0031E7002894D0144B012203902046009495
:105C5C000649CDE9014323466FF0150405F0C1FF59
:105C6C0021E700BF40D7000804F000080CDE000854
:105C7C0023F0000843F00008004000306040003082
:105C8C0065F000087012002494F00008A41200249F
:105C9C0000410030B5F000087CF0000800230C4AED
:105CAC0010B512F83310DC0069B90A4A42F8331007
:105CBC0022449180012191714FF4BF61064A01FB8E
:105CCC000323036010BD0133042BEAD10023F8E752
:105CDC00EA120024E4120024E058003010B5084CFD
:105CEC00121B084CD2106243074C04EBC202938087
:105CFC00036813B902600A6010BD0B681A60FAE7FA
:105D0C00E05800303F6F93EEE41200248288044B7D
:105D1C0003EB021300221A739B68002BFBD1704714
